:020000040800F2
:10000000B85A002009030008D91F0008431A000845
:10001000B11C0008E9080008A92A00080000000037
:10002000000000000000000000000000490200087D
:10003000EB08000800000000A50200085526000893
:1000400023030008230300082303000823030008F8
:1000500023030008230300082303000823030008E8
:1000600023030008230300082303000823030008D8
:1000700023030008230300082303000823030008C8
:1000800023030008230300082303000800000000E6
:100090000000000000000000000000002303000832
:1000A00011270008230300081D2700082303000868
:1000B0002303000823030008230300082303000888
:1000C0002303000823030008230300082303000878
:1000D00023030008230300089D2A000800000000F5
:1000E0002303000823030008230300080000000086
:1000F00000000000000000000000000023030008D2
:100100000000000023030008230300082303000865
:1001100000000000000000000000000000000000DF
:100120002303000823030008230300082303000817
:100130002303000800000000000000000000000091
:100140000000000000000000000000002303000881
:1001500023030008230300082303000823030008E7
:100160002303000823030008000000000000000033
:10017000000000000000000000000000000000007F
:100180000000000023030008000000000000000041
:10019000230300082303000800F002F800F044F8ED
:1001A0000AA090E8000C82448344AAF10107DA45D2
:1001B00001D100F039F8AFF2090EBAE80F0013F0E0
:1001C000010F18BFFB1A43F00103184798480000BD
:1001D000B8480000103A24BF78C878C1FAD852074E
:1001E00024BF30C830C144BF04680C6070470000B1
:1001F0000023002400250026103A28BF78C1FBD830
:10020000520728BF30C148BF0B607047642900F017
:100210007D81632900F0B382002070471FB504F090
:100220006FFB1FBD10B510BD00F016FB1146FFF7A8
:10023000F5FF02F057FC00F034FB03B4FFF7F2FFC8
:1002400003BC02F042FC00002C4B19680868B0E8BF
:10025000F04F80F30988BFF36F8F4FF0000080F3F9
:10026000118870470000000008480068006880F3AB
:1002700008884FF0000080F3148862B661B6BFF3BF
:100280004F8FBFF36F8F00DF00BF00BF08ED00E0AE
:10029000DFF80C00016841F470010160704700BF95
:1002A00088ED00E0EFF30980BFF36F8F134B1A68FE
:1002B0001EF0100F08BF20ED108A20E9F04F1060EB
:1002C00009B44FF0500080F31188BFF34F8FBFF394
:1002D0006F8F03F0F5FB4FF0000080F3118809BC2D
:1002E00019680868B0E8F04F1EF0100F08BFB0ECB6
:1002F000108A80F30988BFF36F8F70474C0000208D
:10030000EFF305807047000009488047094800471F
:10031000FEE7FEE7FEE7FEE7FEE7FEE7FEE7FEE7B5
:10032000FEE7FEE704480549054A064B7047000012
:100330000127000899010008B8540020B85A00208D
:10034000B8560020B8560020704753EA020C00F05F
:1003500069802DE9F04B4FF00006002B1FBFB3FA68
:1003600083F503FA05F424FA05F65E4012BF16433E
:10037000B2FA82F502FA05F4C5F120051EBF22FA91
:1003800005FC44EA0C04203556EA044C4FEA1444B8
:1003900018BF641C4FF000084FF00009904271EB49
:1003A000030C39D3002919BFB1FA81F701FA07F616
:1003B000B0FA80F700FA07F6C7F120071EBF20FA4F
:1003C00007FC46EA0C062037B6FBF4FCA7EB050752
:1003D000103F07F01F0BCBF120060CFA0BFB2CFA99
:1003E00006F644BFB3460026202FA4BF5E464FF05A
:1003F000000B5BEA060C08BF4FF0010B19EB0B0971
:10040000ABFB027C48EB0608C01B06FB02CC0BFBD7
:1004100003CC71EB0C01C1E70B460246414648464E
:10042000BDE8F08B13B54FF000004FF00001AFF3C3
:100430000080BDE81C4070470FB4044910B503AA02
:10044000029800F0A9F910BC5DF814FB38000020F8
:100450002DE9F0410E460446002020622046E16866
:10046000884730B3252805D0D4E901219047206A78
:10047000401CF2E7E168204600278847050018D0B5
:10048000A5F14100192802D820354FF40067324603
:10049000294620462760FFF7B9FE40B1012804D065
:1004A000F61D26F007060836D8E7361DD6E728469B
:1004B000DAE7206ABDE8F08170B50C460546012AEE
:1004C00005D02878800600D5EA69002302E00123E0
:1004D00005E05B1C934202D2E05C0028F9D1A869D8
:1004E000E618C01AA861286A184428622846AFF3A3
:1004F000008004E0D5E9012114F8010B9047B442D3
:10050000F8D32846AFF3008070BD00002DE9F0411C
:100510000646002410687529314616A510D0AFF3A1
:100520000080002802DA404213A507E031688A07FC
:1005300001D512A502E0490704D511A5012401E067
:10054000AFF3008000210A2206F1240709E0B0FB86
:10055000F2FCB0FBF2F302FB1C003030785418467A
:10056000491C0028F3D123462A463046BDE8F04115
:1005700000F0A2B8000000002D0000002B000000D9
:1005800020000000032A40F2308010F0030C00F03D
:10059000158011F8013BBCF1020F624498BF11F8BD
:1005A00001CB00F8013B38BF11F8013BA2F1040276
:1005B00098BF00F801CB38BF00F8013B11F00303EE
:1005C00000F0FC80083AC0F0088051F8043B083A7B
:1005D00051F804CBA0E80810F5E7121D5CBF51F8F4
:1005E000043B40F8043BAFF30080D20724BF11F86E
:1005F000013B11F801CB48BF11F8012B24BF00F8D3
:10060000013B00F801CB48BF00F8012B704702F016
:10061000FF0343EA032242EA024200F002B84FF02D
:1006200000020429C0F0128010F0030C00F01B80BF
:10063000CCF1040CBCF1020F18BF00F8012BA8BFCD
:1006400020F8022BA1EB0C0100F00DB85FEAC17C91
:1006500024BF00F8012B00F8012B48BF00F8012B44
:1006600070474FF0000200B5134694469646203975
:1006700022BFA0E80C50A0E80C50B1F12001BFF45B
:10068000F7AF090728BFA0E80C5048BF0CC05DF8C1
:1006900004EB890028BF40F8042B08BF704748BF0F
:1006A00020F8022B11F0804F18BF00F8012B704783
:1006B00070477047704770472DE9F0470D469946DF
:1006C0009246044600F124080168880604D5E069D2
:1006D00021F01001216000E00120A84201DD471B4C
:1006E00000E00027A1697A1902EB0900081AA0614D
:1006F0002078C00602D42046AFF30080002608E030
:10070000D4E901211AF806009047206A401C761CA3
:1007100020624E45F4DB2078C0060AD52046AFF3B0
:10072000008006E0D4E9012130209047206A401C77
:100730002062381EA7F10107F4DC07E0D4E90121AB
:1007400018F805009047206A401C2062281EA5F179
:100750000105F3DC2046AFF300802078000602D5C7
:100760000220BDE8F0870120FBE710B5436913B113
:10077000AFF3008001E0FFF79FFE012010BD12786B
:1007800000F124010A7000224A700122EDE711688D
:100790004FF0FF32E9E70000074B70B50D467B4490
:1007A00000F043F80446284600F052F810B14FF02C
:1007B000FF3070BD204670BD2B23000010B5203ADD
:1007C000C0F00B80B1E81850203AA0E81850B1E80A
:1007D0001850A0E81850BFF4F5AF5FEA027C24BFC0
:1007E000B1E81850A0E8185044BF18C918C0BDE8B7
:1007F00010405FEA827C24BF51F8043B40F8043B80
:1008000008BF7047D20728BF31F8023B48BF11F834
:10081000012B28BF20F8023B48BF00F8012B70478E
:1008200001694A1C02610878704700B58FB0CDE9B4
:1008300001310021059105497944CDE903101146A4
:100840006846FFF705FE0FB000BD0000E5FFFFFFA3
:10085000007B00F080007047754600F02BF8AE4634
:1008600005006946534620F00700854618B020B5BC
:10087000FFF758FDBDE820404FF000064FF000079D
:100880004FF000084FF0000B21F00701AC46ACE838
:10089000C009ACE8C009ACE8C009ACE8C0098D46A5
:1008A000704710B50446AFF300802046BDE8104005
:1008B000FFF7C3BC004870475854002070B50024AF
:1008C000084B06E01E7A0D5D85551D7A6D1C1D7264
:1008D000641C9442F6DB1A7A6C218154187A401C0D
:1008E000187270BD04000020FEE770472DE9F0414A
:1008F00000240546084F0A2607E0B878002808D1EA
:100900000A2002F000F9641CA4B2B5FBF6F0A04284
:10091000F3D8BDE8F08100000400002072B6FEE7C5
:100920002DE9F0410446876D00F050F9064694F831
:1009300035000025022806D08020606584F83450F8
:100940000120BDE8F0812068016821F016010160F6
:100950002068416921F080014161206C08B9A06CD8
:1009600020B12068016821F0080101602068016859
:1009700021F0010101600CE000F028F9801B05283E
:1009800007D920206065032084F8350084F83450AE
:10099000D7E720680068C007EED194F85C103F20CC
:1009A0008840B860012084F8350084F83450002075
:1009B000C7E790F83510022903D080214165012056
:1009C0007047052180F835100068016821F00101A9
:1009D00001600020704700002DE9F84FDFF8B8A152
:1009E0000022012403254FF00F090AF1040BAAF19C
:1009F000040E00BF0B6804FA02F63340B34273D111
:100A00000F7907F00307012F01D0022F16D1876855
:100A10004FEA420805FA08FC27EA0C07D1F80CC097
:100A20000CFA08FC4CEA070CC0F808C04768B7434A
:100A30000E79C6F3001696403E4346600E79F643A3
:100A4000B6070DD0C768560005FA06FC27EA0C0762
:100A5000D1F808C00CFA06FC4CEA070CC0F80CC030
:100A60000E7906F00306022E10D1D60800EB860898
:100A7000D8F8206057074FEAD76C09FA0CF7BE4345
:100A80000F6907FA0CF73743C8F8207006684FEA79
:100A9000420C05FA0CF7BE430F7907F0030707FA7B
:100AA0000CF7374307604E6816F4403F6DD03B4E5D
:100AB000376847F480473760366822F0030706F44A
:100AC00080460096364E07EB060CDCF80868970760
:100AD0003F0F09FA07F826EA0806DFF8C880404504
:100AE00003D14FF000081EE04FE0DFF8BC80404526
:100AF00002D14FF0010816E0DFF8B080404502D186
:100B00004FF002080FE0DFF8A880404502D14FF017
:100B1000030808E0DFF89C80404502D14FF004084C
:100B200001E04FF0070808FA07F848EA0608CCF891
:100B30000888DAF800605746D1F804C09E435FEA9F
:100B4000CC2C00D51E433E60DBF800605F46D1F838
:100B500004C09E435FEA8C2C00D51E433E60DEF845
:100B600000607746D1F804C09E435FEA8C3C00D514
:100B70001E433E60084F083F3E68D1F804C09E43C4
:100B80005FEACC3C00D51E433E60521C102AFFF4A5
:100B900031AFBDE8F88F0000083C01404438024006
:100BA0000030014000000240000402400008024002
:100BB000000C0240001002400069084000D00120F3
:100BC00070470AB1816170470904FBE701488068FA
:100BD000704700003C000020024881680278114400
:100BE000816070473C0000200B4810B5016841F45B
:100BF00000710160016841F480610160016841F4A5
:100C000080710160032000F099F80F2000F006F8D1
:100C100000F04AF8002010BD003C024030B5054607
:100C20001C4887B00024016841F4802101600068FD
:100C300006A900F48020009001A800F02BF900F034
:100C400059F91549154AB0FBF1F11548491E0260E2
:100C500040F2E732C0E90324C0E90114846100F0E6
:100C600041FB040012D10E4800F088FB04000DD1B6
:100C70001A2000F035F8102D07D2002229461A203C
:100C800000F03CF80748056000E0012407B020466A
:100C900030BD00004438024040420F00004801408F
:100CA0003C0B0020400000200C4882B0016841F459
:100CB00080410160006800F4804000900748001FF8
:100CC000016841F0805101600068002200F080500E
:100CD00000900F21901E02B000F010B8443802407E
:100CE000002809DB00F01F0201219140400980002B
:100CF00000F1E020C0F8001170470000F0B40E4B86
:100D00001B680C46C3F30223C3F10705042D00D969
:100D10000425191D072901D2002300E0DB1E01264E
:100D200006FA05F1491E214099409E40761E164064
:100D30003143F0BC01F0B9BE0CED00E0064900F013
:100D4000070208684FF6FF03184040EA0220034AF2
:100D500010430860704700000CED00E00000FA0549
:100D60002DE9F0470E46050065D0DFF81481D8F86C
:100D70000000F7B200F00700B04207D288F8007018
:100D8000D8F8000000F00700B04254D128683D4C6C
:100D9000810712D5400703D5206840F4E050206059
:100DA0002878000703D5206840F460402060206860
:100DB000A96820F0F000084320602878C0072DD0F3
:100DC000304968680839012812D0022813D0032856
:100DD00011D00968890700292DDA216821F0030163
:100DE00001432160FFF7F2FE814641F2883A0EE0AE
:100DF00009688903EFE709688901ECE7FFF7E6FE78
:100E0000A0EB0901514502D90320BDE8F087206815
:100E1000696800F00C00B0EB810FEFD1D8F800103A
:100E2000404601F00701B14207D90770006800F0A1
:100E30000700B04201D00120E7E72878400705D538
:100E40002068E96820F4E050084320602878000713
:100E500006D52068296920F4604040EAC10020607E
:100E600000F058F82168084AC1F30311515CC840EA
:100E70000649086006480068FFF7D0FE0020C4E776
:100E8000003C024008380240F049000848000020B9
:100E9000400000200F2202600C4A136803F0030395
:100EA0004360136803F0F0038360136803F4E053B6
:100EB000C36012684FF4E05303EAD20202610448AF
:100EC000006800F007000860704700000838024022
:100ED000003C02400448054900680968044AC1F31F
:100EE0008221515CC8407047480000200838024009
:100EF000004A00080448054900680968044AC1F32B
:100F00004231515CC8407047480000200838024018
:100F1000004A0008154810B5006810F00C0214488B
:100F200013D04110042A0FD0082A0ED10F4C241FD1
:100F30002268236802F03F025B0207D52068C0F3F5
:100F40008810A0FB010106E0084610BD2168C1F32E
:100F50008811A1FB00010023FFF7F7F92168C1F315
:100F60000141491C4900B0FBF1F010BD08380240B6
:100F70000024F4002DE9F84F04006ED02078DFF84B
:100F80004C93C007A9F104054AD009F10400016897
:100F9000C1F38101012908D00068C0F38100022853
:100FA0000AD1D9F80000400206D52868800337D559
:100FB00060680028E1D033E06068B0F5803F10D071
:100FC000B0F5A02F286810D020F480302860286861
:100FD00020F4802028606068A8B1FFF7F7FD06467E
:100FE0000DE0286840F48030F4E740F48020286069
:100FF000F7E700BFFFF7EAFD801B642873D8286875
:101000008003F7D50CE0FFF7E1FD064605E000BFE1
:10101000FFF7DCFD801B6428F0D828688003F7D434
:101020002078DFF8AC8280074FF0000A3ED5A74851
:10103000001D016811F00C0F08D00068C0F381009A
:1010400002280BD1D9F80000400207D42868800795
:1010500016D5E068012800D112E033E1E068B8B1AC
:101060000120C8F80000FFF7B1FD064605E000BF0B
:10107000FFF7ACFD801B0228C0D828688007F7D591
:101080002868216920F0F80040EAC10028600DE0DE
:10109000C8F800A0FFF79AFD064604E0FFF796FDAA
:1010A000801B02281FD828688007F7D42078000703
:1010B00022D5864F87486169703771B1012101607F
:1010C000FFF784FD064604E0FFF780FD801B022841
:1010D00009D838688007F7D50EE0C0F800A0FFF700
:1010E00075FD064605E082E0FFF770FD801B0228D3
:1010F0007DD838688007F7D42078400768D5DFF8B6
:10110000CCB100270BF13C0BDBF80000C0000BD486
:10111000DBF8001041F08051CBF80010DBF8000044
:10112000012700F0805000906B4E3068C00510D44D
:10113000306840F480703060FFF748FD009005E0B3
:10114000FFF744FD0099401A022850D83068C005C6
:10115000F6D55E4EA0686C3601280FD005283068A1
:1011600010D020F001003060306820F004003060C2
:10117000A068B8B1FFF72AFD00900FE0306840F09A
:101180000100F4E740F004003060F7E7FFF71EFDD0
:101190000099411A41F28830814266D83068800750
:1011A000F4D50EE0FFF712FD009007E0FFF70EFD0B
:1011B0000099411A41F28830814256D83068800740
:1011C000F4D42FB1DBF8001021F08051CBF80010DF
:1011D000A069C8B33D49091D0968C1F3810102290D
:1011E0004AD00228504607D0C8F8600000E03CE032
:1011F000FFF7ECFC04463BE04746C8F86000FFF709
:10120000E5FC064605E000BFFFF7E0FC801B022876
:101210002BD828688001F7D4D4E907010843A16AD4
:101220002E4A490802EB0141626A41EA82110843F1
:1012300094F82C1040EA0161C9F8001001203866CA
:10124000FFF7C4FC044606E03EE000BFFFF7BEFC2B
:10125000001B022809D828688001F7D534E000BFB8
:10126000FFF7B4FC001B022802D90320BDE8F88F69
:1012700028688001F4D427E00128F7D0D9F80000CD
:10128000E26900F4800191421CD1226A00F03F0122
:10129000914217D147F6C071626A0140B1EB821FDB
:1012A00010D1A26A4FF0FF3300F4403103EB520239
:1012B000B1EB024F06D194F82C1000F07060B0EB47
:1012C000016F01D00120D1E70020CFE704380240B0
:1012D00000004742800E4742007000400000FFFFC0
:1012E0007047704710B5040003D094F83D0010B16A
:1012F00007E0012010BD002084F83C00204600F0EB
:101300001FF8022084F83D00211D206801F00CFA2E
:10131000012084F8460084F83E0084F83F0084F8F9
:10132000400084F8410084F8420084F8430084F8C7
:10133000440084F8450084F83D00002010BD000002
:1013400008B500680B49884212D10B48016841F486
:10135000803101600068002200F480300090052197
:101360001820FFF7CBFCBDE808401820FFF7B8BCF9
:1013700008BD0000004001404438024090F83D1094
:10138000012901D001207047022180F83D10016839
:10139000CA6842F00102CA6000680E4988420ED055
:1013A000B0F1804F0BD00C49884208D00B498842DD
:1013B00005D00B49884202D00A49884204D181688D
:1013C00001F00701062903D0016841F00101016025
:1013D0000020704700000140000400400008004069
:1013E000000C0040004001400168CA6822F0010280
:1013F000CA6001680A6A41F211131A4207D10A6AE7
:101400009B101A4203D10A6822F001020A600121EE
:1014100080F83D100020704770B5044690F83C00FD
:101420000025012817D0012684F83C60022084F8AA
:101430003D002068826822F0770222F47F428260B9
:101440000868502838D00DDC20284FD005DC90B338
:10145000102811D14AE0022070BD302846D0402823
:101460000AD13BE060282FD070280DD0B0F5805F06
:1014700003D0B0F5005F12D0012584F83D60002054
:1014800084F83C00284670BDCB68D1E90121206872
:1014900001F09CF92068816841F0770109E0CB6890
:1014A000D1E90121206801F091F92068816841F4B7
:1014B00080418160E1E719E0CA684968206801F06D
:1014C00097F95021206806E0CA684968206801F051
:1014D000A0F96021206801F083F9CEE7CA68496865
:1014E000206801F085F940212068F4E72268014670
:1014F0001046F0E770472DE9F04104460068C668E1
:1015000005694FF00007A90713D5B10711D5F91EDA
:10151000016101202077206880698007204602D081
:10152000FFF7E8FF04E000F07EF8204600F07CF8CA
:101530002777680716D5700714D521686FF0040067
:101540000861022020772068806910F4407F2046DF
:1015500002D0FFF7CFFF04E000F065F8204600F06E
:1015600063F82777280715D5300713D521686FF062
:1015700008000861042020772068C06980072046A1
:1015800002D0FFF7B7FF04E000F04DF8204600F06E
:101590004BF82777E80616D5F00614D521686FF0CA
:1015A00010000861082020772068C06910F4407F8F
:1015B000204602D0FFF79EFF04E000F034F82046FA
:1015C00000F032F82777E80708D0F00706D0216846
:1015D0006FF001000861204600F028F8280608D5C1
:1015E000300606D521686FF0800008612046FFF7BD
:1015F00077FE680608D5700606D521686FF04000B2
:101600000861204600F036F8A8060AD5B00608D5CD
:1016100021686FF0200008612046BDE8F041FFF727
:1016200060BEBDE8F08170477047000010B5044609
:1016300000680B49884201D1FFF7CEFA09492068BA
:1016400088420BD10849012008700848FFF7CCFEFA
:1016500007480068BDE8104001F00ABB10BD00005B
:10166000004801400040014000000020AC0A00207A
:101670002C0000207047704770470000F8B50168E3
:1016800004460868CA684B6910F00F0F4FF0000558
:1016900059D003F0010602F49077374365D0C107B3
:1016A00005D0D10503D5616C41F0010161644107AA
:1016B00005D5D90703D0616C41F00201616481074F
:1016C00005D5D90703D0616C41F0040161640107BD
:1016D00007D502F02001314303D0616C41F00801CD
:1016E0006164616C00293AD0800604D5900602D569
:1016F000204601F0CFF820684069616CC0F380108B
:10170000090700D460B3204601F09DF820684069C5
:10171000400621D52068143050E8001F21F0400118
:1017200040E80012002AF5D1E06BA8B16E490165CE
:10173000E06BFFF73EF9002811D0E06B016D01B0BE
:10174000BDE8F040084783060FD593060DD5204627
:10175000BDE8F84001F09EB82046FFF78DFFF8BDC8
:101760002046FFF789FF6564F8BD266B2023012E14
:101770007DD1C6067BD5D60679D508684868009025
:1017800048694FF00206400641D5E16B08684068A1
:101790000004000CE8D0A28D8242E5D9E085C8693A
:1017A000B0F5807F2DD020680C3050E8001F21F468
:1017B000807140E80012002AF5D12068143050E80A
:1017C000001F21F0010140E80012002AF5D1206835
:1017D000143050E8001F21F0400140E80012002AB8
:1017E000F5D184F84230256320680C3050E8001FA2
:1017F00021F0100140E80012002AF5D1E06BFFF75C
:101800008FF86663A08DE18D401A81B22AE0A08D29
:10181000E18D401A81B2E08D0028A5D00029A3D027
:1018200022680C3252E8000F20F4907042E8000762
:10183000002FF5D12068143050E8002F22F001026B
:1018400040E80027002FF5D184F842302563206856
:101850000C3050E8002F22F0100240E80023002B4B
:10186000F5D166632046FFF706FFF8BDFFE70506E2
:101870002BD5150629D594F841002128F5D1A0686B
:10188000B0F5805F01D12069B0B1206A411C2162AE
:10189000216800784860E08C401E0004000CE08461
:1018A000E3D12068C16821F08001C1602068C1686F
:1018B00041F04001C160D8E7206A0088C0F3080009
:1018C0004860206A801C2062E5E74006CDD55006BE
:1018D000CBD5CA68204622F04002CA6084F8413065
:1018E00000F0AEF8C1E700003728000870B504002A
:1018F00004D094F84100002510B106E0012070BD2D
:1019000084F84050204600F023F8242084F8410059
:101910002068C16821F40051C160204601F01CF824
:101920002068016921F4904101612068416921F03A
:101930002A0141612068C16841F40051C1606564B9
:10194000202084F8410084F842006563002070BDC7
:1019500010B586B0044614216846FEF782FE17498A
:101960002068884228D116480021026842F40032DB
:101970000260006800F400300590114810380268D9
:1019800042F001020260006800F0010005900C20A6
:1019900000900220CDE9010103200390072004906C
:1019A00069460848FFF718F8002205212620FFF7AE
:1019B000A5F92620FFF794F906B010BD00440040B9
:1019C000403802400000024090F84230202B01D005
:1019D0000220704721B11AB10023036301F042B81D
:1019E0000120704710B50068104988421DD1104889
:1019F0000021026851620F4C618831B900686FF0B4
:101A0000010101610A48FFF7B9FC0A480A4A401C73
:101A1000017860881154401C608006490122BDE8AD
:101A20001040491C0548FFF7CFBF10BD00440040DF
:101A3000AC0A0020000000204C010020F40A002025
:101A40007047FEE730B5002306E0C45CCD5CAC42D5
:101A500001D0002030BD5B1C9342F6DB012030BD7D
:101A600010B5074C04EB00100160828083710021E7
:101A70000172C17141728172C172C16010BD0000FA
:101A8000CC0000202DE9F0410E461E49012701EB54
:101A90000014E07960B10025012814D0022810D18B
:101AA000E07AF0B1401E10F0FF00E07219D01DE0A6
:101AB000A772A1882068FFF77FF8A179884200D13A
:101AC000E771BDE8F081A1882068FFF775F8A1797A
:101AD000884204D16420E0720220E071F1E7E571F0
:101AE000EFE7A07A10B103203070A572A1882068BA
:101AF000FFF762F8A1798842E3D0E07A0028EED0BF
:101B00003770ECE7CC00002010B51C4A0021012002
:101B100001F062F81A4C194A0021A062103201202B
:101B200001F05AF8154AE06220320021012001F04C
:101B300053F8124A2063B43A0021124801F0C4F865
:101B40000E4A6061903A00210F4801F0BDF80B4A3F
:101B5000A0616C3A00210D4801F0B6F8074AE06137
:101B6000483A00210A4801F0AFF8044A2062243ABA
:101B70000021084801F0A8F8606210BDC0490008C3
:101B800004000020DD1F0008F92000086D22000875
:101B90009D2100080920000870B586B01421684610
:101BA000FEF75FFD1E480024016841F0040101605A
:101BB000016801F004010591016841F080010160B4
:101BC000016801F080010591016841F001010160A7
:101BD0000068144E00F001004FF49075059000224B
:101BE00029463046FEF7EDFF4FF40050CDE90004E2
:101BF00069460D480294FEF7EFFE01200095CDE9FD
:101C00000104694630460394FEF7E6FE3015CDE93F
:101C10000004694630460294FEF7DEFE06B070BD51
:101C20003038024000000240000802401FB5002189
:101C300010480091019102910D4A0391026042F215
:101C40000F72C0E901213122C0E903218161FFF750
:101C500049FB08B1FEF762FE4FF4805000906946E0
:101C60000448FFF7D9FB002801D0FEF757FE1FBD3F
:101C700000400140AC0A00200C4810B50A49016040
:101C80004FF4E1314160002181600C22C160C0E964
:101C900004128161C161FFF729FE002803D0BDE86D
:101CA0001040FEF73BBE10BD00440040F40A002087
:101CB000FEE700002DE9F041314D00240F4680463B
:101CC000AE1528E018F804006C280AD004DC2D2892
:101CD0003DD02E281ED12EE0732820D0772819D190
:101CE0000BE0002220212846FEF76BFF0022314640
:101CF0002846FEF766FF14200AE00022202128462D
:101D0000FEF75FFF002231462846FEF75AFF3C20CF
:101D100000F0F9FE641CBC42D4DBBDE8F081002277
:101D200020212846FEF74DFF002231462846FEF7C7
:101D300048FF4620ECE7012220212846FEF741FF1C
:101D4000012231462846FEF73CFF0A200AE0012224
:101D500020212846FEF735FF012231462846FEF7AE
:101D600030FF1E2000F0CFFE002220212846FEF783
:101D700028FF002231462846FEF723FF0A20C7E746
:101D800000000240F0B51C460D4616460746012AE3
:101D900064D0022E74D0032E70D0042E6FD168A1AF
:101DA000FFF750FE08B162202855324666A138463A
:101DB000FFF748FE08B163202855324664A1384633
:101DC000FFF740FE08B166202855324662A138462A
:101DD000FFF738FE08B168202855324660A1384622
:101DE000FFF730FE08B16A20285532465EA138461A
:101DF000FFF728FE08B16C20285532465CA1384612
:101E0000FFF720FE08B17020285532465AA1384607
:101E1000FFF718FE08B171202855324658A1384600
:101E2000FFF710FE08B176202855324656A13846F5
:101E3000FFF708FE08B178202855324654A13846ED
:101E4000FFF700FE08B179202855324652A13846E6
:101E5000FFF7F8FD002832D07A202FE050A1FFF7DD
:101E6000F1FD08B16520285532464EA13846FFF7EE
:101E7000E9FD002823D0742020E001E020E01EE0EE
:101E800049A1FFF7DFFD08B161202855324647A17F
:101E90003846FFF7D7FD08B169202855324644A1DE
:101EA0003846FFF7CFFD08B16D202855324641A1D5
:101EB0003846FFF7C7FD002801D06E202855F0BD39
:101EC0003DA1FFF7BFFD08B16420285532463BA174
:101ED0003846FFF7B7FD08B167202855324638A1CC
:101EE0003846FFF7AFFD08B16B202855324635A1C3
:101EF0003846FFF7A7FD08B16F202855324632A1BA
:101F00003846FFF79FFD08B17220285532462FA1B1
:101F10003846FFF797FD08B17320285532462CA1AB
:101F20003846FFF78FFD08B175202855324629A1A4
:101F30003846FFF787FD0028C1D07720BEE70000B4
:101F40002D2E2E2E000000002D2E2D2E0000000024
:101F50002E2E2D2E000000002E2E2E2E0000000012
:101F60002E2D2D2D000000002E2D2E2E0000000005
:101F70002E2D2D2E000000002D2D2E2D00000000F6
:101F80002E2E2E2D000000002D2E2E2D00000000E4
:101F90002D2E2D2D000000002D2D2E2E00000000D6
:101FA0002E0000002D0000002E2D00002E2E00001F
:101FB0002D2D00002D2E00002D2E2E002D2D2E005B
:101FC0002D2E2D002D2D2D002E2D2E002E2E2E00EF
:101FD0002E2E2D002E2D2D00FEE700000122074998
:101FE0000748FFF7F1FC00234FF40052054918465B
:101FF000FFF736FD012000F086FDFBE70100002021
:10200000F40A0020000802402A4EB7152A4C002589
:102010000A2000F078FD28490020891CFFF732FDD6
:10202000A078012815D00328F2D1002220213046C3
:10203000FEF7C7FD002239463046FEF7C2FDE560D7
:102040002561E57025712078022823D2401C20707C
:1020500021E0002220213046FEF7B3FD0022394660
:102060003046FEF7AEFDE5602561E5702571642020
:1020700000F049FD6078022807D2401CC1B26170AF
:102080000EA0491CFEF7D8F902E065700EA009E029
:10209000A570BDE72570207838B1012807D0022847
:1020A000F6D10CA0FEF7C8F9F2E70DA0FAE70FA0F1
:1020B000F8E7000000000240040000206D6F646536
:1020C00025642E0D0A0000006D6F6465312E0D0A27
:1020D00000000000494E5055542E0D0A000000002B
:1020E0004F55545055542E0D0A000000455A494E84
:1020F0005055542E0D0A00004FF0FF3A1E4FDFF8E6
:102100007C901F4C5146A06A00F038FD38780128B9
:102110001DD10025DFF86C804E4605E018F805104B
:1021200019A0FEF789F96D1C30888542F6DB17A0EF
:10213000FEF782F900253D7032781549114800F00C
:10214000BDF94FF400610F48FEF769FA358011A020
:10215000FEF772F900250E4E04E0715D0AA0FEF74D
:102160006BF96D1C207A8542F7DB08A0FEF764F955
:1021700001206072A072C5E700000020020000206C
:10218000040000204C010020256300000D0A00001F
:10219000460A00204D6F7273653A00002D4E2E4C9A
:1021A000B5152078A8B1012813D00228F9D1A07A5A
:1021B0000028F6D029A0FEF73FF9217A2A48FFF738
:1021C00079FD217A2848FEF72AFA00202072A072B1
:1021D000E7E7A0780028E4D1607880B101281BD01F
:1021E0000228DED1012220213046FEF7EAFC01223E
:1021F00029463046FEF7E5FC40F6B83718E00122E4
:1022000020213046FEF7DDFC012229463046FEF74C
:10221000D8FC4FF47A770BE0012220213046FEF7FC
:10222000D0FC012229463046FEF7CBFC4FF4FA677A
:102230003846FEF75BFB002220213046FEF7C1FC4A
:10224000002229463046FEF7BCFC3846FEF74EFB1E
:10225000A7E7000000000240040000205369676EF9
:10226000616C210D0A000000460A00204FF4AF7A8D
:10227000DFF8D881764C4FF00A094FF0010B4FF48C
:10228000806600252078012802D002283DD13DE05B
:10229000314647464046FEF78FFC012804D1E068EE
:1022A000401CE06084F803B031463846FEF784FCF9
:1022B00020B9E07810B12069401C2061E1685145E7
:1022C00002D82169514504D962A0FEF7B5F8E5604E
:1022D0002561E16823694846B1FBF0F2B3FBF9F3ED
:1022E0009A42D3D1B1FBF9F00A2804D0142804D0C3
:1022F0001E28CBD103E05EA002E060A000E062A057
:10230000FEF79AF8E5602561E5709BE0607A0028A9
:10231000FBD0314647464046FEF74EFC012805D02B
:1023200031463846FEF748FC60B18BE0207920B991
:1023300084F804B056A0FEF77FF8E068401CC4E9BA
:1023400003057FE0207900287CD02069401C2061B3
:10235000012804D0032812D007283FD150E0E068BC
:10236000012802D0032802D007E02E2200E02D220F
:102370004A4960790A54401C6071E56062E048A0F7
:10238000FEF75AF8002705E04448C15D46A0FEF775
:1023900053F87F1C60798742F6DB34A0FEF74CF8D7
:1023A000A0793E49431CA3710346627932313B4810
:1023B000FFF7E8FC32213948FEF731F96571002753
:1023C00006E036483230C15D37A0FEF735F87F1C95
:1023D000A0798742F5DB25A0FEF72EF820690728B3
:1023E00030D9A079401EC1B22C48A1713230455479
:1023F000E079401EE0712DA0FEF71EF8002711E0E5
:102400002649A079323120220A54401CA071E0797B
:10241000401CE07116E021483230C15D22A0FEF779
:102420000BF87F1CA0798742F5DB22A0FEF704F8A9
:102430001A48A1793230FEF7F2F8A571E5712561ED
:10244000257165720A2000F05EFB1BE70000024068
:10245000040000204572726F7220696E20746865F6
:102460002054696D65446574656374210D0A00002C
:102470004669676874210D0A000000005265747295
:10248000656174210D0A0000436F6D65210D0A001E
:10249000446574656374210D0A0000004C09002036
:1024A0004D6F7273653A000025630000456E6453FA
:1024B00074723A002E0D0A0D0A0000002DE9F04159
:1024C00016460D46804600243B4F6CE018F8040089
:1024D000202862D061381A2864D2DFE800F00D109D
:1024E0001316191C1F2225282B2E3134373A3D4054
:1024F0004346494C4F525558022230A149E004222C
:102500002FA146E0042230A143E0032230A140E0A5
:10251000012230A13DE004222FA13AE0032230A1A4
:1025200037E004222FA134E0022230A131E004225E
:102530002FA12EE0032230A12BE004222FA128E0BE
:10254000022230A125E002222FA122E003222FA1A6
:102550001FE004222EA11CE004222FA119E0032277
:102560002FA116E003222FA113E001222EA110E0DB
:1025700003222EA10DE004222DA10AE003222EA1A8
:1025800007E004222DA104E004222EA101E0042290
:102590002EA12846FEF792F904E0397A77202944E3
:1025A00001F8010C641CB44290DB397A7320294491
:1025B00001F8010CBDE8F081040000202E2D000080
:1025C0002D2E2E2E000000002D2E2D2E000000009E
:1025D0002D2E2E002E0000002E2E2D2E000000008D
:1025E0002D2D2E002E2E2E2E000000002E2E00004F
:1025F0002E2D2D2D000000002D2E2D002E2D2E2EE7
:10260000000000002D2D00002D2E00002D2D2D008E
:102610002E2D2D2E000000002D2D2E2D000000004F
:102620002E2D2E002E2E2E002D0000002E2E2D00E1
:102630002E2E2E2D000000002E2D2D002D2E2E2DA5
:10264000000000002D2E2D2D000000002D2D2E2E1F
:102650000000000010B54FF0E020006901F05EFFBF
:10266000012803D0BDE8104001F0D6BA10BD00002B
:1026700030B593B030216846FDF7F3FF14210CA864
:10268000FDF7EFFF1C480025016841F08051016013
:10269000006800F0805011901848016841F44041F2
:1026A00001600068022400F4404011900120009075
:1026B0004FF4A02001906005CDE9064008AA04204F
:1026C000642182E813000B906846FEF753FC08B1C2
:1026D00072B6FEE70CA90F2081E831004FF480505C
:1026E000CDE90F0503210CA8FEF73AFB002801D025
:1026F00072B6FEE713B030BD4038024000700040B3
:102700000248016841F470010160704788ED00E003
:102710000148FEF7F0BE0000AC0A00200148FEF7B9
:10272000EABE00003C0B0020F0B50268204B214CB3
:102730009F03214D214E984207D0B84205D0A042B8
:1027400003D0A84201D0B04204D122F0700C4A68F4
:1027500042EA0C02984210D0B8420ED0A0420CD0EF
:10276000A8420AD0B04208D0154CA04205D0154C62
:10277000A04202D0144CA04203D122F44074CA6893
:1027800022434C6922F08002224302608A68C262BE
:102790000A688262984201D109690163012141619D
:1027A0000169C90703D0016921F001010161F0BD90
:1027B000000001400004004000080040000C004000
:1027C00000400140004401400048014010B58468C9
:1027D00042EA032224F47F440A432243826010BD6C
:1027E000826822F070020A4342F00701816070475C
:1027F00010B5036A046A24F001040462846924F0B9
:10280000F00444EA021423F00A020A4384610262DB
:1028100010BD10B5036A046A24F0100404628469D0
:1028200023F0A00324F4704444EA023243EA011185
:102830008261016210BD10B5806B0021C185C18429
:10284000FEF71AFF10BD01680C3151E8002F22F489
:10285000907241E80023002BF5D10168143151E852
:10286000002F22F0010241E80023002BF5D1016B7B
:10287000012909D101680C3151E8002F22F0100222
:1028800041E80023002BF5D1202180F842100021DF
:102890000163704708B590F84210222901D0022048
:1028A00008BD82684FF480539A4201D1016921B179
:1028B000816A9A421BD04AB10AE00268816A526872
:1028C000C2F308020A80816A891C08E0026972B1B9
:1028D0000268526802F07F020A70816A491C8162B4
:1028E000C18D491E0904090CC18503D01BE0026893
:1028F0005268F1E70168CA6822F02002CA600168E4
:10290000CA6822F48072CA6001684A6922F0010232
:102910004A61202180F8421000214163026B012AA4
:1029200003D0FFF75FF8002008BD016301680C3198
:1029300051E8002F22F0100241E80023002BF5D1CE
:1029400001680A68D20602D50A6849680091818D3B
:10295000FEF791FEE7E7000070B5044600680169E4
:10296000E26821F44051114301612169A068E269E4
:1029700008436169114308432168CA6849F20C633E
:102980009A430243CA6020684169A26921F44071F8
:102990001143416131492068884202D03049884260
:1029A00002D1FEF7A7FA01E0FEF794FAE2690023EC
:1029B000192164253226B2F5004F626828D0A0FBA9
:1029C0000101930F9200FDF7C0FC0146B0FBF5F04A
:1029D0006FF01802504301EB800006EB0010B0FBD3
:1029E000F5F000F0F002B1FBF5F002EB0012B1FBE4
:1029F000F5F06FF01803584301EB800006EB001070
:102A0000B0FBF5F000F00F0021681044886070BD45
:102A1000A0FB010192185B41FDF797FC0146B0FB5A
:102A2000F5F00201B1FBF5F06FF01803584301EB2C
:102A3000800006EBC000B0FBF5F000F0F80002EB00
:102A40004002B1FBF5F0584301EB800006EBC000FB
:102A5000B0FBF5F000F00700D6E7000000100140E1
:102A60000014014081628285C285002141642221D7
:102A700080F84210016921B10168CA6842F480728D
:102A8000CA6001684A6942F001024A610068C1688F
:102A900041F02001C1600020704700000148FEF7AE
:102AA000EDBD0000F40A0020FEE70907090E00282A
:102AB00004DB00F1E02080F80014704700F00F0004
:102AC00000F1E02080F8141D7047704704490A683F
:102AD0005206FCD5024AC1B2121D116070470000B7
:102AE00000440040FEF780F8FFF7C2FDFFF754F8FE
:102AF000FFF7C2F8FFF79AF800F012F8FFF704F8B2
:102B000000F020F8FEE710B5EFF3058111B16FF08A
:102B1000050403E0002408B100F0D6FE204610BDF5
:102B2000EFF3058010B16FF00500704704480168AD
:102B300011B14FF0FF307047012101600020704754
:102B40009C00002010B5EFF3058010B16FF0050078
:102B500010BD08480168012902D04FF0FF3010BDB8
:102B6000054A002182F8141D0221016000F05CFF7B
:102B7000002010BD9C0000200BE000E0F8B50D46E1
:102B80000024211F4E1C002804D000BFEFF3058253
:102B9000A2B10DB10C461BE000216A46009101F084
:102BA00021FB012813D1009890B10A494FF08050C1
:102BB0000860BFF34F8FBFF36F8F09E0294601F024
:102BC0005FFB012804D015B16FF0010400E034462A
:102BD0002046F8BD04ED00E0F8B5144603460E4665
:102BE0004FF00005EFF3058098BB93B39E423DD8AC
:102BF0004CB1A0680028E06803D0502836D30120EB
:102C000002E008B132E00020012B05D010B31846D5
:102C1000A26801F034F820E040B1032000900022C7
:102C200011460120A36801F06BF804E003220021A3
:102C3000012001F044F8050018D086B100231A469F
:102C4000194601F0D5F8012809D0284600F0EEFD1C
:102C500000250BE0184600F0F5FF050006D00CB18A
:102C6000216800E00021284600F0CCFD2846F8BD90
:102C700038B50024E51E00280BD000BFEFF3058116
:102C8000A9B100210091694601F0C1F9012815D1CF
:102C900002E06FF0030412E0009880B109494FF0A0
:102CA00080500860BFF34F8FBFF36F8F07E00023A2
:102CB0001A46194601F09CF8012800D02C462046FF
:102CC00038BD000004ED00E02DE9FF414FEA0103AB
:102CD0004FF00005EFF30581039549BB40B3802712
:102CE000182100244AB3166806B1344696691EB10D
:102CF0003146761E382E02D21679F60703D0002010
:102D000004B0BDE8F081566906B1B708D2F808C032
:102D1000BCF1000F0DD0D5685C2D18D312693AB103
:102D200036B18DE806103A46214601F0CCFB0390FF
:102D30000DE0D6685EB912694AB903AACDE900125E
:102D4000BAB2214601F092FB012800D00395039806
:102D5000D6E700002DE9F041134C0F460546E66822
:102D60002068001D00F050FC681C07D137B12168B5
:102D7000BDE8F0410D48091D00F096BC20683544BF
:102D8000B5424560216805D2A06BBDE8F041091D40
:102D900000F072BC606B091D00F06EFCA06A8542F9
:102DA00000D2A562BDE8F0814C0000207410002024
:102DB0002DE9F041054600F083FC2D4CA068401C35
:102DC000A06020682B4F10B1606930B32BE0256004
:102DD000A068012827D1002606EB860007EB8000BB
:102DE00000F03CFC761C382EF6D3234800F036FC6D
:102DF0002148143000F032FC1F48283000F02EFC2F
:102E00001D483C3000F02AFC1B48503000F026FCE6
:102E1000194860631430A06305E02068E96AC06A5D
:102E2000884200D82560606A401C60626864E86A75
:102E30002169884200D9206100EB800007EB800007
:102E4000291D00F031FC00F05BFC606900280CD00B
:102E50002068E96AC06A884207D208494FF080506A
:102E60000860BFF34F8FBFF36F8FBDE8F0810000A4
:102E70004C000020C40B00202410002004ED00E0D2
:102E800038B500F01DFC104C2068C8B90F4800F0A0
:102E9000E5FB0E48143000F0E1FB0C48E060143014
:102EA00020610A4B0020F03B009003F150021021FA
:102EB0000A2000F025FF206010B105A100F0A2FC5F
:102EC000BDE8384000F01CBC8800002078110020CC
:102ED000546D72510000000030B4026C0B46002AA1
:102EE0000BD0C1681144C1608468A14201D301685C
:102EF000C16030BC1846FDF745BB30BC70472DE9BA
:102F0000F041856B174604460026026C82B1C7B1BA
:102F1000E068FDF737FBE168206C091AE160226880
:102F2000914202D2A168081AE060022F16D017E081
:102F30002068A8B9A06801F069FB06460020A060DF
:102F40000EE06068FDF71EFB216C6068084460605D
:102F5000A168884204D32068606001E005B16D1E5D
:102F60006D1CA5633046BDE8F08110B5044690F8AD
:102F7000590058B101280CD002280FD0502080F3FE
:102F80001188BFF34F8FBFF36F8FFEE7206B00F008
:102F9000CBFB2046BDE8104000F0C6BB10BD0000D2
:102FA00010484FF47051420706D0C01D0D4920F063
:102FB0000700411AC1F570510B4A00230144C2E9D0
:102FC00000030839183A21F0070111604B600B60CB
:102FD0000B1AC0E9001393604FF00040536050613A
:102FE0007047000058180020B8000020144E154CFF
:102FF000A6F29C474FF08058DFF84C9012E000BFDB
:1030000000F05EFBF068C568281D00F0FDFAA068BE
:10301000401EA0606068401E606000F071FB2846A2
:10302000FFF7A3FF60680028EAD138680128F9D9C2
:10303000C9F80080BFF34F8FBFF36F8FF2E7000036
:10304000601000204C00002004ED00E070B51D462B
:10305000049C51B1C4F80020C4E90F0101212046AD
:1030600000F082FE84F84C5070BD2460F4E700004C
:103070002DE9F05F8846DDE90B9415468346910003
:103080009A460A9EA522206BFDF7C1FA6FF0030154
:10309000206B01EB8501084420F00707780707D073
:1030A000502080F31188BFF34F8FBFF36F8FFEE77F
:1030B0000025B8F1000F0FD05FF00000221818F8BB
:1030C000001082F8341018F8001011B1401C1028BC
:1030D000F4D384F8435001E084F83450382E00D300
:1030E0003726E662C4E91365201D00F0C2FA04F138
:1030F000180000F0BEFA2461C6F138006462A061D5
:10310000656584F8585052465946384600F066FACC
:103110002060B9F1000F01D0C9F80040BDE8F09F70
:1031200030B5114900E011460A688242FBD34B6872
:103130005C18844203D140681844486008464368DC
:103140001C18944209D1084C183C2468A24209D0AA
:1031500052681A4442600A6812680260814200D0D4
:10316000086030BD0460F9E7B800002070B50024A5
:1031700041600B4D0061914206D8D11A826991429B
:1031800006D2011D286907E09A4203D2994201D371
:10319000012403E0011DE86800F06EFA204670BDCE
:1031A0008800002010B5044600F08AFAA06B28B110
:1031B0005FF0000400F0A4FA204610BD0124F9E7F6
:1031C00030B589B03C4D6EE00498002806DADDE9A0
:1031D0000601059A90470498002864DB069C606904
:1031E00010B1201D00F010FA03A800F0D7F8024635
:1031F00004980A2857D2DFE800F00505052D334A68
:1032000005052D3394F8280040F0010084F82800CB
:103210000599A069059B01442046FFF7A7FF68B305
:10322000216A2046884794F8280040073BD50020B3
:1032300000900598A169002342181946204601F024
:103240002BFBD8B9502080F31188BFF34F8FBFF309
:103250006F8FFEE714F8280F20F00100207022E0A5
:1032600094F8280040F0010084F828000598A06137
:1032700028B1811813462046FFF778FF13E050204D
:1032800080F31188BFF34F8FBFF36F8FFEE794F881
:103290002800810703D4204600F046FA03E020F01E
:1032A000010084F82800002204A9286800F0FEFE2E
:1032B000002889D109B030BD880000202DE9FC41EB
:1032C0000F46054600F0F4FB01A800F067F804463D
:1032D000019818B101F04EFABDE8FC81254EAFB15E
:1032E00030690068D0B30027291B3A46306800F0E7
:1032F000C9FA01F03FFA0028EED11F494FF0805083
:103300000860BFF34F8FBFF36F8FE5E7A542EBD89F
:1033100001F030FAF0682746C068C468201D00F04C
:1033200073F994F82800410719D5A0692B46411973
:103330003A462046FFF71AFFA8B10020034601468F
:1033400000902A46204601F0A7FA60B9502080F389
:103350001188BFF34F8FBFF36F8FFEE707E020F0B8
:10336000010084F82800216A20468847B4E7012735
:10337000BAE700008800002004ED00E00648416B39
:10338000096829B1416BC968C96849688162704799
:103390004FF0FF31FAE700004C00002070B5054601
:1033A00001F0CAF8064E0446B068844203D200F029
:1033B00009F8012000E0002028602046B46070BDBC
:1033C00088000020F8B5194D20E0C068C468066880
:1033D000201D00F019F9216A2046884794F828003A
:1033E000400713D5A0693044B04206D9246160601B
:1033F000211DE86800F040F908E00020034601467E
:1034000000903246204601F047FA38B1E86801687A
:103410000029DAD12969C5E90310F8BD502080F3ED
:103420001188BFF34F8FBFF36F8FFEE78800002036
:1034300008484068401C4FF0500080F3118804D0C9
:10344000BFF34F8FBFF36F8FFEE7BFF34F8FBFF315
:103450006F8FFEE7C0000020074CE068016841B1B3
:10346000C0680021D0F80000FFF728FFFFF7A8FE92
:10347000F3E701210020F7E7880000202DE9F04163
:10348000044600F01DF994F9455004F1240609E0C2
:10349000606A48B1304601F035F908B100F042FAEF
:1034A0006D1E6DB2002DF3DC4FF0FF3684F84560E1
:1034B00000F026F900F004F994F9445004F11007E3
:1034C00009E0206948B1384601F01CF908B100F064
:1034D00029FA6D1E6DB2002DF3DC84F84460BDE85E
:1034E000F04100F00DB900002DE9F041054600273C
:1034F00000F0DEFA324E306808B9FFF751FD70690E
:1035000005424ED1C5B3083568070ED005F0070057
:10351000C0F108000544680707D0502080F31188E7
:10352000BFF34F8FBFF36F8FFEE72DB370688542F7
:1035300037D82348183001460C6801E020460C4675
:103540006168A94202D221680029F7D131688C4212
:1035500027D007682168016060680837411B10297F
:103560000FD96019420708D0502080F31188BFF3AB
:103570004F8FBFF36F8FFEE713E041606560FFF789
:10358000CFFD61687068401A7060B268904200D2E6
:10359000B060706901430020C4E90001F068401C7C
:1035A000F06001F0E7F8780707D0502080F3118829
:1035B000BFF34F8FBFF36F8FFEE73846BDE8F08152
:1035C000A00000200449086818B10868026D521C68
:1035D00002650868704700004C00002010B5031F0A
:1035E0004FF080741C601B1F21F001011960191F2E
:1035F000044B0B6014390A60091F6FF00202443853
:103600000A6010BD31340008D0E9013201699A60C6
:10361000D0E901235A604A68824201D182684A6037
:10362000002202610868401E0860086870470000B8
:10363000034B036003F15C0008608020106070475A
:10364000A0110020044B036003F15C0008604FF4FC
:103650008070106070470000FC13002000F108012A
:103660004FF0FF32C0E90112C16001610021016029
:10367000704700210161704730B50B685A1C02D0B9
:1036800000F1080202E0026904E02246546825685D
:103690009D42FAD953684B6099608A605160086115
:1036A0000168491C016030BD42684A6093688B60C4
:1036B00093685960916008610168491C0160704716
:1036C000502080F31188BFF34F8FBFF36F8F0A49EB
:1036D0004868401C486001280CD10848006810F078
:1036E000FF0F07D0502080F31188BFF34F8FBFF337
:1036F0006F8FFEE770470000C000002004ED00E07F
:103700000849486828B1401E486001D180F31188FB
:103710007047502080F31188BFF34F8FBFF36F8F36
:10372000FEE70000C000002070B500282AD0164D2A
:10373000A0F1080460686969084207D1502080F34D
:103740001188BFF34F8FBFF36F8FFEE722683AB146
:10375000502080F31188BFF34F8FBFF36F8FFEE7C8
:103760008843606000F0A4F9606869680844686094
:103770002046FFF7D5FC2869401C2861BDE8704051
:1037800000F0F8BF70BD0000A00000204FF0E02066
:1037900000210161816105494FF47A720968B1FB2A
:1037A000F2F1491E41610721016170474800002084
:1037B00010B5FCF7A5FD114910280ED300F1E0204B
:1037C00090F8F0030A78904207D2502080F31188D5
:1037D000BFF34F8FBFF36F8FFEE70948006889681A
:1037E00000F4E060884207D9502080F31188BFF3CD
:1037F0004F8FBFF36F8FFEE710BD0000C0000020A9
:103800000CED00E010B5084B002200BF53F8324029
:103810001CB1521C082AF9D310BD43F8321003EB37
:10382000C201486010BD0000840B002010B50400E8
:103830000AD000F013F894F8460000280CD1204676
:10384000BDE81040FFF770BF502080F31188BFF330
:103850004F8FBFF36F8FFEE710BD0000084A0021B5
:1038600002EBC1035B68834206D1002042F83100BD
:1038700002EBC10148607047491C0829F0D370472A
:10388000840B002070B515460E460446FFF718FF5E
:1038900094F944100020491C01D184F8440094F9A3
:1038A0004510491C01D184F84500FFF729FFA06BA2
:1038B00028B92A46314604F1240000F051F8204688
:1038C000BDE87040FFF7DABD10B5020014D00F4814
:1038D000006B38B1502080F31188BFF34F8FBFF3D6
:1038E0006F8FFEE700F0E4F800211046FFF732FA90
:1038F00000F040FF002807D105494FF080500860D4
:10390000BFF34F8FBFF36F8F10BD00004C0000203E
:1039100004ED00E002490A6A0260C968416070472C
:103920004C00002001490120C86170474C00002074
:1039300010B50C4650B1094909681831FFF79CFED3
:103940002046BDE810400121FFF704BA502080F363
:103950001188BFF34F8FBFF36F8FFEE74C0000203D
:1039600070B514460D4668B10A4909681831FFF769
:103970009BFE0CB14FF0FF3521462846BDE8704054
:10398000FFF7E8B9502080F31188BFF34F8FBFF3E2
:103990006F8FFEE74C00002070B504003ED0226D12
:1039A000A2B1E06C884200D30146E06A884235D07B
:1039B000012A33D11A4D2A6894420FD1502080F346
:1039C0001188BFF34F8FBFF36F8FFEE7502080F356
:1039D0001188BFF34F8FBFF36F8FFEE7E162A269DB
:1039E000002A02DBC1F13801A1610E4E00EB80001C
:1039F000616906EB8000814210D1201DFFF704FEB3
:103A0000E06A2969884200D9286100EB800006EB52
:103A10008000211DBDE87040FFF746BE70BD00006C
:103A20004C000020C40B002030B587B00024039464
:103A300005AA04A903A80494FFF7FAFDDDE9030130
:103A40000094CDE90110002315A11748059A00F054
:103A50003AFD164D0028E8621FD000F0EDFE012867
:103A600009D0401C19D1502080F31188BFF34F8F2B
:103A7000BFF36F8FFEE7502080F31188BFF34F8FA5
:103A8000BFF36F8F4FF0FF30A86201206861EC60D8
:103A900007B0BDE8304000F045B807B030BD0000C9
:103AA00049444C4500000000ED2F00084C00002068
:103AB0000248016B491C0163704700004C00002064
:103AC000164810B5016B11B10121C16110BD002173
:103AD000C1610169124A01E0B9B1491E01EB8103DC
:103AE00052F82330002BF7D001EB810302EB830265
:103AF00002F1080453685B685360A34201D15B681C
:103B00005360DA680260016110BD502080F31188B3
:103B1000BFF34F8FBFF36F8FFEE700004C00002014
:103B2000C40B00201CB537480168374A914207D1C1
:103B3000502080F31188BFF34F8FBFF36F8FFEE7E4
:103B400000683149491E884207D1502080F311880E
:103B5000BFF34F8FBFF36F8FFEE72C4908780190BA
:103B6000FF20087008788DF800009DF800009DF88F
:103B7000002000F0F000904207D0502080F3118820
:103B8000BFF34F8FBFF36F8FFEE79DF80000204C0F
:103B900000F0500020700720A06005E09DF8002094
:103BA00052008DF80020401E9DF800201206F5D42A
:103BB000A060032807D0502080F31188BFF34F8FF7
:103BC000BFF36F8FFEE74FF44070A060019808705C
:103BD0000C482030016841F470010160016841F037
:103BE00070410160FFF7D2FD00206060FCF750FBE0
:103BF0000848016841F040410160FCF735FB0020B6
:103C00001CBD000000ED00E071C20F4100E400E0C7
:103C1000C000002034EF00E010B5502080F3118880
:103C2000BFF34F8FBFF36F8F00F08CFC18B10449C6
:103C30004FF080500860002080F3118810BD000014
:103C400004ED00E010B50C4648B184420FD9502075
:103C500080F31188BFF34F8FBFF36F8FFEE75020C3
:103C600080F31188BFF34F8FBFF36F8FFEE70222FF
:103C7000002100F024F8002800D0846310BD38B57E
:103C80000C4648B184420FD9502080F31188BFF30D
:103C90004F8FBFF36F8FFEE7502080F31188BFF383
:103CA0004F8FBFF36F8FFEE7022113460022009172
:103CB000114600F025F8002800D0846338BDF8B51F
:103CC00017460E46050013D005FB06F05030FFF7EF
:103CD0000BFC04000AD0002084F8460004F15002D6
:103CE0003B46314628460094FFF7B0F92046F8BD20
:103CF000502080F31188BFF34F8FBFF36F8FFEE723
:103D000038B5049D18B153B1CAB181B120E050203B
:103D100080F31188BFF34F8FBFF36F8FFEE7502002
:103D200080F31188BFF34F8FBFF36F8FFEE75020F2
:103D300080F31188BFF34F8FBFF36F8FFEE739B168
:103D4000502080F31188BFF34F8FBFF36F8FFEE7D2
:103D500050241C46012384F846302B460094FFF77C
:103D600075F9204638BD000070B50D46040025D019
:103D7000FFF7A6FCD4E90F20216802FB0011A16027
:103D80000021A163216861600A46D4E90F01401E49
:103D900000FB0121E16021464FF0FF3001F8440FA4
:103DA000487004F110008DB1FFF758FC04F12400B5
:103DB000FFF754FCFFF7A4FC012070BD502080F3F6
:103DC0001188BFF34F8FBFF36F8FFEE72169002982
:103DD000F0D000F097FC0028ECD004494FF0805060
:103DE0000860BFF34F8FBFF36F8FE3E704ED00E090
:103DF0002DE9FF4782B01D468A464FF000080400B7
:103E000003D0BAF1000F08D011E0502080F31188E0
:103E1000BFF34F8FBFF36F8FFEE7206C38B1502098
:103E200080F31188BFF34F8FBFF36F8FFEE7022D32
:103E30000AD1E06B012807D0502080F31188BFF32E
:103E40004F8FBFF36F8FFEE700F068FB3F4F4FF0DF
:103E500000094FF0805648B9049838B1502080F3DB
:103E60001188BFF34F8FBFF36F8FFEE7FFF728FC7A
:103E7000A06BE16B884207D3022D05D00498D0B126
:103E8000B8F1000F1AD01EE02A4651462046FFF72F
:103E900036F8616A19B104F1240000F033FC20B156
:103EA0003E60BFF34F8FBFF36F8FFFF729FC0120F8
:103EB00006B0BDE8F087FFF723FC22E06846FFF775
:103EC00029FD4FF00108FFF71BFCFFF7F1FDFFF79D
:103ED000F7FB94F94400401C01D184F8449094F914
:103EE0004500401C01D184F84590FFF709FC04A966
:103EF000684600F081FA30B12046FFF7BFFA00F0C3
:103F000039FC0020D4E7FFF7DBFBA06BE16B8842B4
:103F100013D1FFF7F5FB04F110000499FFF708FD3A
:103F20002046FFF7ABFA00F025FC00289ED13E604A
:103F3000BFF34F8FBFF36F8F98E7FFF7E1FB20468A
:103F4000FFF79CFA00F016FC90E7000004ED00E09B
:103F50002DE9F0471F4690468946040003D0B9F189
:103F6000000F08D011E0502080F31188BFF34F8F6D
:103F7000BFF36F8FFEE7206C38B1502080F31188BB
:103F8000BFF34F8FBFF36F8FFEE7022F0AD1E06BB5
:103F9000012807D0502080F31188BFF34F8FBFF363
:103FA0006F8FFEE7FFF704FC5020EFF3118680F3DC
:103FB0001188BFF34F8FBFF36F8FA06BE16B884207
:103FC00006D3022F04D0002086F31188BDE8F087C5
:103FD00094F94550A06B3A4649462046FEF78FFFBC
:103FE000681C04D06D1C84F845500120ECE7606A21
:103FF0000028FAD004F1240000F084FB0028F4D05B
:10400000B8F1000FF1D00121C8F80010EDE770B54C
:104010000E46040009D0206C78B1502080F311883E
:10402000BFF34F8FBFF36F8FFEE7502080F31188EF
:10403000BFF34F8FBFF36F8FFEE7206848B9A068CA
:1040400038B1502080F31188BFF34F8FBFF36F8FCB
:10405000FEE7FFF7ADFB5020EFF3118580F31188E9
:10406000BFF34F8FBFF36F8FA16BE06B884218D9FE
:1040700094F94500491CA163411C04D0401C84F8FC
:10408000450001200EE0606A0028FAD004F1240007
:1040900000F038FB0028F4D0002EF2D00120306070
:1040A000EFE7002085F3118870BD00002DE9F74788
:1040B000002683B08A46040003D0BAF1000F08D06E
:1040C00011E0502080F31188BFF34F8FBFF36F8F43
:1040D000FEE7206C38B1502080F31188BFF34F8F7A
:1040E000BFF36F8FFEE700F019FADFF8F4804FF0AE
:1040F00000094FF0805748B9059838B1502080F337
:104100001188BFF34F8FBFF36F8FFEE7FFF7D8FA29
:10411000A56BC5B151462046FEF7DEFE6D1EA563B8
:10412000206950B104F1100000F0ECFA28B1C8F891
:104130000070BFF34F8FBFF36F8FFFF7E1FA0120DD
:1041400006B0BDE8F087059808B11EB106E0FFF79C
:10415000D7FA27E06846FFF7DDFB0126FFF7D0FA24
:10416000FFF7A6FCFFF7ACFA94F94400401C01D11C
:1041700084F8449094F94500401C01D184F845909E
:10418000FFF7BEFA05A9684600F036F90028204678
:104190000AD0FFF773F900F0EDFA2046FFF702F8B6
:1041A0000028B3D00020CBE7FEF7FCFF90B104F16C
:1041B00024000599FFF7BCFB2046FFF75FF900F0EC
:1041C000D9FA0028A2D1C8F80070BFF34F8FBFF30F
:1041D0006F8F9BE72046FFF751F900F0CBFA95E788
:1041E00004ED00E02DE9F04790468946040003D035
:1041F000B9F1000F08D011E0502080F31188BFF30F
:104200004F8FBFF36F8FFEE7206C38B1502080F3E3
:104210001188BFF34F8FBFF36F8FFEE7FFF7C8FA28
:104220005020EFF3118680F31188BFF34F8FBFF357
:104230006F8FA76BF7B194F9445049462046FEF7BB
:104240004BFE7F1EA763681C04D06D1C84F844508D
:10425000012010E020690028FAD004F1100000F0DD
:1042600051FA0028F4D0B8F1000FF1D00121C8F8BC
:104270000010EDE7002086F31188BDE8F08700000C
:104280002DE9F343002683B00400354609D0206CA5
:1042900078B1502080F31188BFF34F8FBFF36F8F39
:1042A000FEE7502080F31188BFF34F8FBFF36F8F6D
:1042B000FEE700F033F9DFF83C814FF000094FF0E2
:1042C000805748B9049838B1502080F31188BFF363
:1042D0004F8FBFF36F8FFEE7FFF7F2F9A06BC8B106
:1042E000401EA063206810B9FFF76CF9A060206938
:1042F00050B104F1100000F005FA28B1C8F80070C0
:10430000BFF34F8FBFF36F8FFFF7FAF9012005B0AE
:10431000BDE8F083049808B166B10FE03DB15020CC
:1043200080F31188BFF34F8FBFF36F8FFEE7FFF766
:10433000E7F95DE06846FFF7EDFA0126FFF7E0F9DF
:10434000FFF7B6FBFFF7BCF994F94400401C01D11C
:1043500084F8449094F94500401C01D184F84590BC
:10436000FFF7CEF904A9684600F046F80028204679
:1043700012D0FFF783F800F0FDF92046FEF712FF98
:104380000028A9D09DB3FFF79BF9606A50B3206B5A
:104390000068C0F1380126E0FEF704FFE0B12068B4
:1043A00038B9FFF78DF9A06800F070F90546FFF7FE
:1043B000A7F904F124000499FFF7BAFA2046FFF7A1
:1043C0005DF800F0D7F9002886D1C8F80070BFF377
:1043D0004F8FBFF36F8F7FE72046FFF74FF800F056
:1043E000C9F979E70021A068FFF7D6FA9FE7FFE750
:1043F00000208CE704ED00E02DE9F0410C460500BB
:1044000011D0C4B1FFF75CF9174BDA686E68206809
:10441000911B471C17D02F681B6A9F4219D09642E8
:1044200017D8012410E0502080F31188BFF34F8F7C
:10443000BFF36F8FFEE7502080F31188BFF34F8FDB
:10444000BFF36F8FFEE70024FFF75AF92046BDE85F
:10445000F081884205D9401A20602846FFF75AFAB1
:10446000F1E700202060DCE74C0000202DE9FF5F31
:104470008346DDE90E87994616468A469000FFF787
:1044800033F805001CD05C20FFF72EF8040014D090
:104490000020256384F85900CDE90240CDE900876A
:1044A0004B46324651465846FEF7E2FD2046FEF79F
:1044B0007FFC012004B0BDE8F09F2846FFF734F9E7
:1044C0004FF0FF30F6E7F0B585B0DDE90B640A9DEB
:1044D000A6B1DCB15C2700972663022684F85960F8
:1044E000002604AFCDE90246CDE90057FEF7C0FD36
:1044F0002046FEF75DFC049805B0F0BD502080F327
:104500001188BFF34F8FBFF36F8FFEE7502080F30A
:104510001188BFF34F8FBFF36F8FFEE705484169E6
:1045200019B1006B18B100207047012070470220BC
:10453000704700004C0000200148C0687047000030
:104540004C0000202DE9F0412E4C0027206B28B1B3
:10455000A069401CA0613846BDE8F081E668761C81
:10456000E66013D1606B006838B1502080F3118889
:10457000BFF34F8FBFF36F8FFEE7606BA16B61637B
:10458000A063206A401C2062FEF7F8FEA06ADFF8F4
:104590007880864209D3606B0068A0B1606BC06808
:1045A000C5686868864211D2A0622068C06A00EBC4
:1045B000800158F82100012800D90127E06900286E
:1045C000C9D00127C7E74FF0FF30EDE7281DFFF7FF
:1045D0001BF8A86A18B105F11800FFF715F8E86A8A
:1045E0002169884200D9206100EB800108EB81003D
:1045F000291DFFF759F8E86A2168C96A8842CAD3B9
:104600000127C8E74C000020C40B002070B504004F
:104610004FF0000133D01B4D2868844207D0502052
:1046200080F31188BFF34F8FBFF36F8FFEE7206DCC
:1046300038B1401E2065E36CE26A9A421FD040B157
:104640001DE0502080F31188BFF34F8FBFF36F8FB1
:10465000FEE7201DFEF7D8FFE06CE062C0F13800F5
:10466000A061E06A2969884200D92861064900EB07
:10467000800001EB8000211DFFF716F8012108469C
:1046800070BD00004C000020C40B002070B5040079
:104690004FF000002BD0194DE16A2A68D26A91428E
:1046A00026D2A069002804DB2868C06AC0F138005F
:1046B000A061134E01EB8101606906EB8101884224
:1046C00011D1201DFEF7A0FF2868C06AE0622969A9
:1046D000884200D9286100EB800006EB8000211D94
:1046E000FEF7E2FF02E02868C06AE062012070BDC8
:1046F000E16C2A68D26A9142F8D370BD4C00002068
:10470000C40B002070B5C068C46854B104F118002F
:104710000646FEF779FF144D286B50B13146134819
:1047200015E0502080F31188BFF34F8FBFF36F8FD8
:10473000FEE7201DFEF768FFE06A2969884200D97C
:1047400028610B4900EB800001EB8000211DFEF782
:10475000ABFFE06A2968C96A884202D90120E86192
:1047600070BD002070BD00004C0000204C100020E7
:10477000C40B00202DE9F0472C4D00242746286B60
:1047800038B1FEF79DFF286B401E2863286B40B1AF
:1047900046E0502080F31188BFF34F8FBFF36F8F37
:1047A000FEE7A968224E0120D1B3A6F591698046A3
:1047B0003068E0B1F068C46804F11800FEF724FF27
:1047C000201DFEF721FFE06A2969884200D928618F
:1047D00000EB800109EB8100211DFEF765FFE06A17
:1047E0002968C96A8842E3D3C5F81C80E0E70CB1A8
:1047F000FEF7C4FDAC694CB14FEA0806FFF7A2FE14
:1048000000B1EE61641EF9D10020A861E86938B1F9
:104810000849012738070860BFF34F8FBFF36F8F38
:10482000FEF76EFF3846BDE8F08700004C00002020
:104830004C10002004ED00E010B586B0FEF720FB20
:10484000114C2068B8B100200390049005AA04A977
:1048500003A8FEF7F7FEDDE9032102208DE807003B
:1048600000230AA10B48059AFFF72DFE606010B1E6
:1048700006B0012010BD502080F31188BFF34F8F88
:10488000BFF36F8FFEE7000088000020546D722098
:1048900053766300593400082DE9FF411E46134644
:1048A00002000A9D4FF0000016D0144C2768002F1C
:1048B0000FD0CDE900130292062917DAFFF72EFE7A
:1048C00002284FF000030FD0002269462068FFF74E
:1048D0008FFA04B0BDE8F081502080F31188BFF357
:1048E0004F8FBFF36F8FFEE72A46EEE70023324675
:1048F00069463846FFF72CFBEBE7000088000020F4
:104900004FF04070E1EE100A70470000404A000886
:104910000000000000000000000000000000000097
:10492000000200001800000000000000000000006D
:10493000084A00080000000000000000000000001D
:104940000000000000020000200000000000000045
:1049500000000000304A00080000000000000000D5
:10496000000000000000000000020000180000002D
:104970000000000000000000184A000800000000CD
:104980000000000000000000000000000002000025
:10499000180000000000000000000000244A000889
:1049A0000000000000000000000000000000000007
:1049B00000020000180000000000000000000000DD
:1049C0005C4A000800000000000000000000000039
:1049D0004C4A000800000000000000000000000039
:1049E000544A000800000000000000000000000021
:1049F000000000000000000001020304060708098F
:104A00000000000001020304526563656976654495
:104A10006174615461736B005369676E616C5461BA
:104A2000736B00004B65795363616E5461736B0067
:104A300054696D654465746563745461736B0000FB
:104A400044656661756C745461736B005369676E7D
:104A5000616C000044657465637400005573617295
:104A600074000000844A000800000020CC00000010
:104A7000D4010008504B0008CC000020EC59000085
:104A8000F00100080000000000000000000000002D
:104A90000000000000000000000000000000000016
:104AA0000000000000000000000000000000000006
:104AB00000000000000000000000000000000000F6
:104AC0000100000010000000000000000024F400BD
:104AD00000000000000000000000000000000000D6
:104AE00000000000000000000000000000000000C6
:104AF00000000000000000000000000000000000B6
:104B000000000000000000000000000000000000A5
:104B10000000000000000000000000000000000095
:104B20000000000000000000000000000000000085
:104B30000000000000000000000000000000000075
:104B40000000000000000000AAAAAAAA00000000BD
:040000050800019955
:00000001FF
