:020000040800F2
:10000000885F0020090300087D200008EF1A00081F
:10001000551D0008E9080008A92B00080000000091
:10002000000000000000000000000000490200087D
:100030009509000800000000A50200081527000827
:1000400023030008230300082303000823030008F8
:1000500023030008230300082303000823030008E8
:1000600023030008230300082303000823030008D8
:1000700023030008230300082303000823030008C8
:1000800023030008230300082303000800000000E6
:100090000000000000000000000000002303000832
:1000A000D127000823030008DD27000823030008E8
:1000B0002303000823030008230300082303000888
:1000C0002303000823030008230300082303000878
:1000D00023030008230300089D2B000800000000F4
:1000E0002303000823030008230300080000000086
:1000F00000000000000000000000000023030008D2
:100100000000000023030008230300082303000865
:1001100000000000000000000000000000000000DF
:100120002303000823030008230300082303000817
:100130002303000800000000000000000000000091
:100140000000000000000000000000002303000881
:1001500023030008230300082303000823030008E7
:100160002303000823030008000000000000000033
:10017000000000000000000000000000000000007F
:100180000000000023030008000000000000000041
:10019000230300082303000800F002F800F044F8ED
:1001A0000AA090E8000C82448344AAF10107DA45D2
:1001B00001D100F039F8AFF2090EBAE80F0013F0E0
:1001C000010F18BFFB1A43F0010318470C4B000046
:1001D0002C4B0000103A24BF78C878C1FAD85207D7
:1001E00024BF30C830C144BF04680C6070470000B1
:1001F0000023002400250026103A28BF78C1FBD830
:10020000520728BF30C148BF0B607047642900F017
:100210007D81632900F0B382002070471FB504F090
:10022000B3FC1FBD10B510BD00F016FB1146FFF763
:10023000F5FF02F0D7FC00F034FB03B4FFF7F2FF48
:1002400003BC02F0C2FC00002C4B19680868B0E83F
:10025000F04F80F30988BFF36F8F4FF0000080F3F9
:10026000118870470000000008480068006880F3AB
:1002700008884FF0000080F3148862B661B6BFF3BF
:100280004F8FBFF36F8F00DF00BF00BF08ED00E0AE
:10029000DFF80C00016841F470010160704700BF95
:1002A00088ED00E0EFF30980BFF36F8F134B1A68FE
:1002B0001EF0100F08BF20ED108A20E9F04F1060EB
:1002C00009B44FF0500080F31188BFF34F8FBFF394
:1002D0006F8F03F007FD4FF0000080F3118809BC19
:1002E00019680868B0E8F04F1EF0100F08BFB0ECB6
:1002F000108A80F30988BFF36F8F70474C0000208D
:10030000EFF305807047000009488047094800471F
:10031000FEE7FEE7FEE7FEE7FEE7FEE7FEE7FEE7B5
:10032000FEE7FEE704480549054A064B7047000012
:10033000C12700089901000888590020885F002023
:10034000885B0020885B0020704753EA020C00F0B5
:1003500069802DE9F04B4FF00006002B1FBFB3FA68
:1003600083F503FA05F424FA05F65E4012BF16433E
:10037000B2FA82F502FA05F4C5F120051EBF22FA91
:1003800005FC44EA0C04203556EA044C4FEA1444B8
:1003900018BF641C4FF000084FF00009904271EB49
:1003A000030C39D3002919BFB1FA81F701FA07F616
:1003B000B0FA80F700FA07F6C7F120071EBF20FA4F
:1003C00007FC46EA0C062037B6FBF4FCA7EB050752
:1003D000103F07F01F0BCBF120060CFA0BFB2CFA99
:1003E00006F644BFB3460026202FA4BF5E464FF05A
:1003F000000B5BEA060C08BF4FF0010B19EB0B0971
:10040000ABFB027C48EB0608C01B06FB02CC0BFBD7
:1004100003CC71EB0C01C1E70B460246414648464E
:10042000BDE8F08B13B54FF000004FF00001AFF3C3
:100430000080BDE81C4070470FB4044910B503AA02
:10044000029800F0A9F910BC5DF814FB38000020F8
:100450002DE9F0410E460446002020622046E16866
:10046000884730B3252805D0D4E901219047206A78
:10047000401CF2E7E168204600278847050018D0B5
:10048000A5F14100192802D820354FF40067324603
:10049000294620462760FFF7B9FE40B1012804D065
:1004A000F61D26F007060836D8E7361DD6E728469B
:1004B000DAE7206ABDE8F08170B50C460546012AEE
:1004C00005D02878800600D5EA69002302E00123E0
:1004D00005E05B1C934202D2E05C0028F9D1A869D8
:1004E000E618C01AA861286A184428622846AFF3A3
:1004F000008004E0D5E9012114F8010B9047B442D3
:10050000F8D32846AFF3008070BD00002DE9F0411C
:100510000646002410687529314616A510D0AFF3A1
:100520000080002802DA404213A507E031688A07FC
:1005300001D512A502E0490704D511A5012401E067
:10054000AFF3008000210A2206F1240709E0B0FB86
:10055000F2FCB0FBF2F302FB1C003030785418467A
:10056000491C0028F3D123462A463046BDE8F04115
:1005700000F0A2B8000000002D0000002B000000D9
:1005800020000000032A40F2308010F0030C00F03D
:10059000158011F8013BBCF1020F624498BF11F8BD
:1005A00001CB00F8013B38BF11F8013BA2F1040276
:1005B00098BF00F801CB38BF00F8013B11F00303EE
:1005C00000F0FC80083AC0F0088051F8043B083A7B
:1005D00051F804CBA0E80810F5E7121D5CBF51F8F4
:1005E000043B40F8043BAFF30080D20724BF11F86E
:1005F000013B11F801CB48BF11F8012B24BF00F8D3
:10060000013B00F801CB48BF00F8012B704702F016
:10061000FF0343EA032242EA024200F002B84FF02D
:1006200000020429C0F0128010F0030C00F01B80BF
:10063000CCF1040CBCF1020F18BF00F8012BA8BFCD
:1006400020F8022BA1EB0C0100F00DB85FEAC17C91
:1006500024BF00F8012B00F8012B48BF00F8012B44
:1006600070474FF0000200B5134694469646203975
:1006700022BFA0E80C50A0E80C50B1F12001BFF45B
:10068000F7AF090728BFA0E80C5048BF0CC05DF8C1
:1006900004EB890028BF40F8042B08BF704748BF0F
:1006A00020F8022B11F0804F18BF00F8012B704783
:1006B00070477047704770472DE9F0470D469946DF
:1006C0009246044600F124080168880604D5E069D2
:1006D00021F01001216000E00120A84201DD471B4C
:1006E00000E00027A1697A1902EB0900081AA0614D
:1006F0002078C00602D42046AFF30080002608E030
:10070000D4E901211AF806009047206A401C761CA3
:1007100020624E45F4DB2078C0060AD52046AFF3B0
:10072000008006E0D4E9012130209047206A401C77
:100730002062381EA7F10107F4DC07E0D4E90121AB
:1007400018F805009047206A401C2062281EA5F179
:100750000105F3DC2046AFF300802078000602D5C7
:100760000220BDE8F0870120FBE710B5436913B113
:10077000AFF3008001E0FFF79FFE012010BD12786B
:1007800000F124010A7000224A700122EDE711688D
:100790004FF0FF32E9E70000074B70B50D467B4490
:1007A00000F043F80446284600F052F810B14FF02C
:1007B000FF3070BD204670BD2B24000010B5203ADC
:1007C000C0F00B80B1E81850203AA0E81850B1E80A
:1007D0001850A0E81850BFF4F5AF5FEA027C24BFC0
:1007E000B1E81850A0E8185044BF18C918C0BDE8B7
:1007F00010405FEA827C24BF51F8043B40F8043B80
:1008000008BF7047D20728BF31F8023B48BF11F834
:10081000012B28BF20F8023B48BF00F8012B70478E
:1008200001694A1C02610878704700B58FB0CDE9B4
:1008300001310021059105497944CDE903101146A4
:100840006846FFF705FE0FB000BD0000E5FFFFFFA3
:10085000007B00F080007047754600F02BF8AE4634
:1008600005006946534620F00700854618B020B5BC
:10087000FFF758FDBDE820404FF000064FF000079D
:100880004FF000084FF0000B21F00701AC46ACE838
:10089000C009ACE8C009ACE8C009ACE8C0098D46A5
:1008A000704710B50446AFF300802046BDE8104005
:1008B000FFF7C3BC004870472859002070B50024DA
:1008C000084B06E09E790D5D85559D796D1C9D71E7
:1008D000641C9442F6DB9A796C2181549879401C0F
:1008E000987170BD04000020FEE700002DE9F04182
:1008F000234C2078022825D1E079002822D0214FEE
:100900004FF480663146384600F0ACF901250128E5
:100910001AD03146384600F0A5F9002812D1A07A45
:1009200000280FD02069401C2061012818D003281E
:100930001BD007281ED005D9E07A002802D14FF03D
:100940000800E072BDE8F081A07A18B9A5720EA087
:10095000FFF772FDE068401CE06000202061F1E7D5
:10096000E07A0028EED1E572ECE7E07A0028E9D1E0
:100970000320E6E7E07A0028E4D10720E1E7000061
:10098000040000200000024052656365697665211D
:100990000D0A0000704700002DE9F04100240546D3
:1009A000084F0A2607E0B878002808D10A2002F08C
:1009B0002AF9641CA4B2B5FBF6F0A042F3D8BDE856
:1009C000F08100000400002072B6FEE72DE9F0413E
:1009D0000446876D00F050F9064694F8350000256E
:1009E000022806D08020606584F834500120BDE8DC
:1009F000F0812068016821F01601016020684169DA
:100A000021F080014161206C08B9A06C20B1206800
:100A1000016821F0080101602068016821F00101EE
:100A200001600CE000F028F9801B052807D9202080
:100A30006065032084F8350084F83450D7E72068D7
:100A40000068C007EED194F85C103F208840B86081
:100A5000012084F8350084F834500020C7E790F86E
:100A60003510022903D080214165012070470521FE
:100A700080F835100068016821F001010160002054
:100A8000704700002DE9F84FDFF8B8A100220124DB
:100A900003254FF00F090AF1040BAAF1040E00BF61
:100AA0000B6804FA02F63340B34273D10F7907F0B2
:100AB0000307012F01D0022F16D187684FEA4208A1
:100AC00005FA08FC27EA0C07D1F80CC00CFA08FC60
:100AD0004CEA070CC0F808C04768B7430E79C6F364
:100AE000001696403E4346600E79F643B6070DD099
:100AF000C768560005FA06FC27EA0C07D1F808C0BB
:100B00000CFA06FC4CEA070CC0F80CC00E7906F093
:100B10000306022E10D1D60800EB8608D8F8206014
:100B200057074FEAD76C09FA0CF7BE430F6907FA6B
:100B30000CF73743C8F8207006684FEA420C05FAF4
:100B40000CF7BE430F7907F0030707FA0CF737439A
:100B500007604E6816F4403F6DD03B4E376847F44F
:100B600080473760366822F0030706F48046009617
:100B7000364E07EB060CDCF8086897073F0F09FABA
:100B800007F826EA0806DFF8C880404503D14FF091
:100B900000081EE04FE0DFF8BC80404502D14FF076
:100BA000010816E0DFF8B080404502D14FF002089E
:100BB0000FE0DFF8A880404502D14FF0030808E0BD
:100BC000DFF89C80404502D14FF0040801E04FF06F
:100BD000070808FA07F848EA0608CCF80888DAF89F
:100BE00000605746D1F804C09E435FEACC2C00D584
:100BF0001E433E60DBF800605F46D1F804C09E43B0
:100C00005FEA8C2C00D51E433E60DEF8006077461C
:100C1000D1F804C09E435FEA8C3C00D51E433E6081
:100C2000084F083F3E68D1F804C09E435FEACC3CC1
:100C300000D51E433E60521C102AFFF431AFBDE8C0
:100C4000F88F0000083C0140443802400030014069
:100C5000000002400004024000080240000C024074
:100C6000001002400069084000D0012070470AB11E
:100C7000816170470904FBE7014880687047000004
:100C80003C0000200248816802781144816070476E
:100C90003C0000200B4810B5016841F40071016070
:100CA000016841F480610160016841F48071016074
:100CB000032000F099F80F2000F006F800F04AF841
:100CC000002010BD003C024030B505461C4887B0EE
:100CD0000024016841F480210160006806A900F445
:100CE0008020009001A800F02BF900F059F9154977
:100CF000154AB0FBF1F11548491E026040F2E73297
:100D0000C0E90324C0E90114846100F041FB040040
:100D100012D10E4800F088FB04000DD11A2000F01B
:100D200035F8102D07D2002229461A2000F03CF891
:100D30000748056000E0012407B0204630BD0000F0
:100D40004438024040420F00004801406C0B002034
:100D5000400000200C4882B0016841F480410160ED
:100D6000006800F4804000900748001F016841F0CF
:100D7000805101600068002200F0805000900F2137
:100D8000901E02B000F010B844380240002809DB81
:100D900000F01F02012191404009800000F1E02095
:100DA000C0F8001170470000F0B40E4B1B680C46F1
:100DB000C3F30223C3F10705042D00D90425191D2F
:100DC000072901D2002300E0DB1E012606FA05F107
:100DD000491E214099409E40761E16403143F0BC8A
:100DE00001F0E3BE0CED00E0064900F007020868E0
:100DF0004FF6FF03184040EA0220034A1043086000
:100E0000704700000CED00E00000FA052DE9F04706
:100E10000E46050065D0DFF81481D8F80000F7B25F
:100E200000F00700B04207D288F80070D8F8000040
:100E300000F00700B04254D128683D4C810712D51C
:100E4000400703D5206840F4E05020602878000770
:100E500003D5206840F4604020602068A96820F035
:100E6000F000084320602878C0072DD0304968681A
:100E70000839012812D0022813D0032811D009689C
:100E8000890700292DDA216821F00301014321603F
:100E9000FFF7F2FE814641F2883A0EE009688903C5
:100EA000EFE709688901ECE7FFF7E6FEA0EB09012F
:100EB000514502D90320BDE8F0872068696800F039
:100EC0000C00B0EB810FEFD1D8F80010404601F0D4
:100ED0000701B14207D90770006800F00700B0426F
:100EE00001D00120E7E72878400705D52068E968A8
:100EF00020F4E050084320602878000706D52068D9
:100F0000296920F4604040EAC100206000F058F8F0
:100F10002168084AC1F30311515CC84006490860C2
:100F200006480068FFF7D0FE0020C4E7003C0240FE
:100F300008380240684C00084800002040000020AB
:100F40000F2202600C4A136803F003034360136826
:100F500003F0F0038360136803F4E053C360126886
:100F60004FF4E05303EAD20202610448006800F043
:100F7000070008607047000008380240003C02404B
:100F80000448054900680968044AC1F38221515C9C
:100F9000C84070474800002008380240784C0008DC
:100FA0000448054900680968044AC1F34231515CAC
:100FB000C84070474800002008380240784C0008BC
:100FC000154810B5006810F00C02144813D04110F9
:100FD000042A0FD0082A0ED10F4C241F2268236840
:100FE00002F03F025B0207D52068C0F38810A0FB27
:100FF000010106E0084610BD2168C1F38811A1FB7C
:1010000000010023FFF7A1F92168C1F30141491C48
:101010004900B0FBF1F010BD083802400024F40094
:101020002DE9F84F04006ED02078DFF84C93C0070C
:10103000A9F104054AD009F104000168C1F3810156
:10104000012908D00068C0F3810002280AD1D9F82C
:101050000000400206D52868800337D56068002864
:10106000E1D033E06068B0F5803F10D0B0F5A02F3C
:10107000286810D020F480302860286820F4802070
:1010800028606068A8B1FFF7F7FD06460DE0286804
:1010900040F48030F4E740F480202860F7E700BF98
:1010A000FFF7EAFD801B642873D828688003F7D512
:1010B0000CE0FFF7E1FD064605E000BFFFF7DCFDB1
:1010C000801B6428F0D828688003F7D42078DFF8E4
:1010D000AC8280074FF0000A3ED5A748001D01688A
:1010E00011F00C0F08D00068C0F3810002280BD16A
:1010F000D9F80000400207D42868800716D5E068B8
:10110000012800D112E033E1E068B8B10120C8F84D
:101110000000FFF7B1FD064605E000BFFFF7ACFD9C
:10112000801B0228C0D828688007F7D52868216965
:1011300020F0F80040EAC10028600DE0C8F800A0E7
:10114000FFF79AFD064604E0FFF796FD801B022894
:101150001FD828688007F7D42078000722D5864F4B
:1011600087486169703771B101210160FFF784FD23
:10117000064604E0FFF780FD801B022809D8386886
:101180008007F7D50EE0C0F800A0FFF775FD064612
:1011900005E082E0FFF770FD801B02287DD83868EB
:1011A0008007F7D42078400768D5DFF8CCB1002756
:1011B0000BF13C0BDBF80000C0000BD4DBF8001097
:1011C00041F08051CBF80010DBF80000012700F05F
:1011D000805000906B4E3068C00510D4306840F4E9
:1011E00080703060FFF748FD009005E0FFF744FD98
:1011F0000099401A022850D83068C005F6D55E4ED6
:10120000A0686C3601280FD00528306810D020F077
:1012100001003060306820F004003060A068B8B190
:10122000FFF72AFD00900FE0306840F00100F4E77E
:1012300040F004003060F7E7FFF71EFD0099411A07
:1012400041F28830814266D830688007F4D50EE0DC
:10125000FFF712FD009007E0FFF70EFD0099411A1D
:1012600041F28830814256D830688007F4D42FB1DB
:10127000DBF8001021F08051CBF80010A069C8B352
:101280003D49091D0968C1F3810102294AD002289C
:10129000504607D0C8F8600000E03CE0FFF7ECFCE7
:1012A00004463BE04746C8F86000FFF7E5FC064609
:1012B00005E000BFFFF7E0FC801B02282BD8286860
:1012C0008001F7D4D4E907010843A16A2E4A4908EE
:1012D00002EB0141626A41EA8211084394F82C1042
:1012E00040EA0161C9F8001001203866FFF7C4FC2C
:1012F000044606E03EE000BFFFF7BEFC001B0228EC
:1013000009D828688001F7D534E000BFFFF7B4FCA6
:10131000001B022802D90320BDE8F88F286880014D
:10132000F4D427E00128F7D0D9F80000E26900F4EE
:10133000800191421CD1226A00F03F01914217D1F5
:1013400047F6C071626A0140B1EB821F10D1A26AF8
:101350004FF0FF3300F4403103EB5202B1EB024F88
:1013600006D194F82C1000F07060B0EB016F01D042
:101370000120D1E70020CFE70438024000004742B7
:10138000800E4742007000400000FFFF704770472A
:1013900010B5040003D094F83D0010B107E001201F
:1013A00010BD002084F83C00204600F01FF8022009
:1013B00084F83D00211D206801F016FA012084F810
:1013C000460084F83E0084F83F0084F8400084F82A
:1013D000410084F8420084F8430084F8440084F813
:1013E000450084F83D00002010BD000008B50068ED
:1013F0000B49884212D10B48016841F480310160E9
:101400000068002200F48030009005211820FFF7CA
:10141000CBFCBDE808401820FFF7B8BC08BD0000B1
:10142000004001404438024090F83D10012901D0AD
:1014300001207047022180F83D100168CA6842F01F
:101440000102CA6000680E4988420ED0B0F1804F98
:101450000BD00C49884208D00B49884205D00B4973
:10146000884202D00A49884204D1816801F007010C
:10147000062903D0016841F0010101600020704796
:10148000000001400004004000080040000C004043
:10149000004001400168CA6822F00102CA60016888
:1014A0000A6A41F211131A4207D10A6A9B101A42C2
:1014B00003D10A6822F001020A60012180F83D1080
:1014C0000020704770B5044690F83C0000250128C4
:1014D00017D0012684F83C60022084F83D00206883
:1014E000826822F0770222F47F42826008685028E6
:1014F00038D00DDC20284FD005DC90B3102811D156
:101500004AE0022070BD302846D040280AD13BE096
:1015100060282FD070280DD0B0F5805F03D0B0F5D3
:10152000005F12D0012584F83D60002084F83C0063
:10153000284670BDCB68D1E90121206801F0A6F9E9
:101540002068816841F0770109E0CB68D1E9012189
:10155000206801F09BF92068816841F48041816036
:10156000E1E719E0CA684968206801F0A1F9502153
:10157000206806E0CA684968206801F0AAF960217D
:10158000206801F08DF9CEE7CA684968206801F04B
:101590008FF940212068F4E7226801461046F0E701
:1015A00070472DE9F04104460068C66805694FF0B0
:1015B0000007A90713D5B10711D5F91E0161012054
:1015C0002077206880698007204602D0FFF7E8FF77
:1015D00004E000F07EF8204600F07CF827776807EA
:1015E00016D5700714D521686FF004000861022039
:1015F00020772068806910F4407F204602D0FFF7F2
:10160000CFFF04E000F065F8204600F063F827778C
:10161000280715D5300713D521686FF00800086139
:10162000042020772068C0698007204602D0FFF799
:10163000B7FF04E000F04DF8204600F04BF82777A4
:10164000E80616D5F00614D521686FF01000086181
:10165000082020772068C06910F4407F204602D01F
:10166000FFF79EFF04E000F034F8204600F032F867
:101670002777E80708D0F00706D021686FF001004F
:101680000861204600F028F8280608D5300606D55F
:1016900021686FF0800008612046FFF777FE68063A
:1016A00008D5700606D521686FF040000861204615
:1016B00000F036F8A8060AD5B00608D521686FF004
:1016C000200008612046BDE8F041FFF760BEBDE89C
:1016D000F08170477047000010B5044600680B4960
:1016E000884201D1FFF7CEFA0949206888420BD120
:1016F0000849012008700848FFF7CCFE0748006839
:10170000BDE8104001F034BB10BD000000480140AE
:101710000040014000000020DC0A002034000020CE
:101720007047704770470000F8B5016804460868C4
:10173000CA684B6910F00F0F4FF0000559D003F045
:10174000010602F49077374365D0C10705D0D10573
:1017500003D5616C41F001016164410705D5D907EA
:1017600003D0616C41F002016164810705D5D9079E
:1017700003D0616C41F004016164010707D502F0F8
:101780002001314303D0616C41F008016164616C58
:1017900000293AD0800604D5900602D5204601F0F3
:1017A000FAF820684069616CC0F38010090700D422
:1017B00060B3204601F0C8F820684069400621D592
:1017C0002068143050E8001F21F0400140E800126A
:1017D000002AF5D1E06BA8B16E490165E06BFFF717
:1017E0003EF9002811D0E06B016D01B0BDE8F0407A
:1017F000084783060FD593060DD52046BDE8F8406F
:1018000001F0C9B82046FFF78DFFF8BD2046FFF76D
:1018100089FF6564F8BD266B2023012E7DD1C606A5
:101820007BD5D60679D508684868009048694FF09E
:101830000206400641D5E16B086840680004000CD0
:10184000E8D0A28D8242E5D9E085C869B0F5807FF5
:101850002DD020680C3050E8001F21F4807140E842
:101860000012002AF5D12068143050E8001F21F042
:10187000010140E80012002AF5D12068143050E838
:10188000001F21F0400140E80012002AF5D184F841
:101890004230256320680C3050E8001F21F0100111
:1018A00040E80012002AF5D1E06BFFF78FF866637D
:1018B000A08DE18D401A81B22AE0A08DE18D401A01
:1018C00081B2E08D0028A5D00029A3D022680C3277
:1018D00052E8000F20F4907042E80007002FF5D185
:1018E0002068143050E8002F22F0010240E8002761
:1018F000002FF5D184F84230256320680C3050E881
:10190000002F22F0100240E80023002BF5D166637F
:101910002046FFF706FFF8BDFFE705062BD51506A5
:1019200029D594F841002128F5D1A068B0F5805F51
:1019300001D12069B0B1206A411C21622168007880
:101940004860E08C401E0004000CE084E3D1206875
:10195000C16821F08001C1602068C16841F0400188
:10196000C160D8E7206A0088C0F308004860206A98
:10197000801C2062E5E74006CDD55006CBD5CA686D
:10198000204622F04002CA6084F8413000F0AEF8F0
:10199000C1E700003929000870B5040004D094F8AC
:1019A0004100002510B106E0012070BD84F84050D0
:1019B000204600F023F8242084F841002068C16804
:1019C00021F40051C160204601F046F82068016909
:1019D00021F4904101612068416921F02A014161AF
:1019E0002068C16841F40051C1606564202084F81A
:1019F000410084F842006563002070BD10B586B0D8
:101A0000044614216846FEF72CFE174920688842D8
:101A100028D116480021026842F4003202600068B2
:101A200000F40030059011481038026842F00102BD
:101A30000260006800F0010005900C200090022078
:101A4000CDE901010320039007200490694608486E
:101A5000FFF718F8002205212620FFF7A5F9262018
:101A6000FFF794F906B010BD004400404038024032
:101A70000000024090F84230202B01D00220704735
:101A800021B11AB10023036301F06CB80120704743
:101A900010B50068104988421DD110480021026825
:101AA00051620F4C618831B900686FF0010101612A
:101AB0000A48FFF7B9FC0A480A4A401C01786088C6
:101AC0001154401C608006490122BDE81040491CA9
:101AD0000548FFF7CFBF10BD00440040DC0A0020DE
:101AE000000000204C010020240B00207047FEE77E
:101AF00030B5002306E0C45CCD5CAC4201D00020D0
:101B000030BD5B1C9342F6DB012030BD10B5074CA5
:101B100004EB001001608280837100210172C171A9
:101B200041728172C172C16010BD0000CC00002002
:101B30002DE9F0410E461E49012701EB0014E07922
:101B400060B10025012814D0022810D1E07AF0B14C
:101B5000401E10F0FF00E07219D01DE0A772A188AE
:101B60002068FFF77FF8A179884200D1E771BDE8CE
:101B7000F081A1882068FFF775F8A179884204D127
:101B80006420E0720220E071F1E7E571EFE7A07AEE
:101B900010B103203070A572A1882068FFF762F8A9
:101BA000A1798842E3D0E07A0028EED03770ECE7E4
:101BB000CC00002010B5194A0021012001F08CF85A
:101BC000174C164B00222063103B0121154801F0F1
:101BD00041F9124AE062C43A0021134801F0F4F8D6
:101BE0000E4AA061A03A0021104801F0EDF80B4A1E
:101BF000E0617C3A00210E4801F0E6F8074A2062D5
:101C0000583A00210B4801F0DFF8044A6062343A88
:101C10000021094801F0D8F8A06210BD584C000816
:101C200004000020ED0800087921000825230008A1
:101C3000C9230008A92400088120000870B586B0D7
:101C400014216846FEF70DFD1E480024016841F08E
:101C500004010160016801F004010591016841F08F
:101C600080010160016801F080010591016841F087
:101C7000010101600068144E00F001004FF49075FE
:101C80000590002229463046FEF7F1FF4FF4005040
:101C9000CDE9000469460D480294FEF7F3FE0120E9
:101CA0000095CDE90104694630460394FEF7EAFE4B
:101CB0003015CDE90004694630460294FEF7E2FE95
:101CC00006B070BD303802400000024000080240FB
:101CD0001FB5002110480091019102910D4A039116
:101CE000026042F20F72C0E901213122C0E90321F2
:101CF0008161FFF74DFB08B1FEF766FE4FF480509F
:101D0000009069460448FFF7DDFB002801D0FEF78C
:101D10005BFE1FBD00400140DC0A00200C4810B5EE
:101D20000A4901604FF4E1314160002181600C22D9
:101D3000C160C0E904128161C161FFF72DFE002876
:101D400003D0BDE81040FEF73FBE10BD0044004088
:101D5000240B0020FEE700002DE9F041314D002466
:101D60000F468046AE1528E018F804006C280AD00B
:101D700004DC2D283DD02E281ED12EE0732820D043
:101D8000772819D10BE0002220212846FEF76FFFAB
:101D9000002231462846FEF76AFF14200AE000229E
:101DA00020212846FEF763FF002231462846FEF731
:101DB0005EFF3C2000F027FF641CBC42D4DBBDE882
:101DC000F081002220212846FEF751FF00223146F3
:101DD0002846FEF74CFF4620ECE70122202128464A
:101DE000FEF745FF012231462846FEF740FF0A2054
:101DF0000AE0012220212846FEF739FF0122314660
:101E00002846FEF734FF1E2000F0FDFE00222021B0
:101E10002846FEF72CFF002231462846FEF727FF12
:101E20000A20C7E700000240F0B51C460D461646E2
:101E30000746012A64D0022E74D0032E70D0042EDF
:101E40006FD168A1FFF754FE08B1622028553246D1
:101E500066A13846FFF74CFE08B16320285532468C
:101E600064A13846FFF744FE08B166202855324683
:101E700062A13846FFF73CFE08B16820285532467B
:101E800060A13846FFF734FE08B16A202855324673
:101E90005EA13846FFF72CFE08B16C20285532466B
:101EA0005CA13846FFF724FE08B170202855324661
:101EB0005AA13846FFF71CFE08B17120285532465A
:101EC00058A13846FFF714FE08B17620285532464F
:101ED00056A13846FFF70CFE08B178202855324647
:101EE00054A13846FFF704FE08B179202855324640
:101EF00052A13846FFF7FCFD002832D07A202FE0AF
:101F000050A1FFF7F5FD08B16520285532464EA1D6
:101F10003846FFF7EDFD002823D0742020E001E0D3
:101F200020E01EE049A1FFF7E3FD08B1612028553C
:101F3000324647A13846FFF7DBFD08B16920285536
:101F4000324644A13846FFF7D3FD08B16D2028552D
:101F5000324641A13846FFF7CBFD002801D06E2064
:101F60002855F0BD3DA1FFF7C3FD08B164202855F9
:101F700032463BA13846FFF7BBFD08B16720285524
:101F8000324638A13846FFF7B3FD08B16B2028551B
:101F9000324635A13846FFF7ABFD08B16F20285512
:101FA000324632A13846FFF7A3FD08B1722028550A
:101FB00032462FA13846FFF79BFD08B17320285504
:101FC00032462CA13846FFF793FD08B175202855FD
:101FD000324629A13846FFF78BFD0028C1D0772073
:101FE000BEE700002D2E2E2E000000002D2E2D2EDF
:101FF000000000002E2E2D2E000000002E2E2E2E72
:10200000000000002E2D2D2D000000002E2D2E2E64
:10201000000000002E2D2D2E000000002D2D2E2D55
:10202000000000002E2E2E2D000000002D2E2E2D43
:10203000000000002D2E2D2D000000002D2D2E2E35
:10204000000000002E0000002D0000002E2D0000DA
:102050002E2E00002D2D00002D2E00002D2E2E00E6
:102060002D2D2E002D2E2D002D2D2D002E2D2E0050
:102070002E2E2E002E2E2D002E2D2D00FEE70000E0
:102080002A4EB7152A4C00250A2000F0BCFD28492D
:102090000020891CFFF74CFDA078012815D00328EB
:1020A000F2D1002220213046FEF7E1FD0022394620
:1020B0003046FEF7DCFDE56025616572A57220788B
:1020C000022823D2401C207021E00022202130462B
:1020D000FEF7CDFD002239463046FEF7C8FDE5602B
:1020E00025616572A572642000F08DFD607802287C
:1020F00007D2401CC1B261700EA0491CFEF79CF9CA
:1021000002E065700FA009E0A570BDE7257020789A
:1021100038B1012807D00228F6D10EA0FEF78CF9BD
:10212000F2E70FA0FAE711A0F8E700000000024074
:10213000040000204C65646D6F64653A25642E0DC3
:102140000A0000004C65646D6F64653A312E0D0A1B
:1021500000000000494E5055542E0D0A00000000AA
:102160004F55545055542E0D0A000000455A494E03
:102170005055542E0D0A0000012254495448FFF7CF
:1021800079FC00234FF4005252491846FFF7BEFC79
:10219000514C0A21E06A00F099FE504F002607F1E9
:1021A0006408E07A012806D0032813D0072842D01B
:1021B00008283CD149E0E068012802D0032802D079
:1021C00006E02E2100E02D21E0783954401CE0701B
:1021D000E6602BE042A0FEF72FF9002504E0795DD0
:1021E00041A0FEF729F96D1CE0788542F7DB3FA09E
:1021F000FEF722F923793949581C2071E2786431BD
:102200003648FFF711FE32213448FEF708FAE6702F
:10221000002505E018F8051033A0FEF70DF96D1C38
:1022200020798542F6DB31A0FEF706F9E67205203B
:1022300000F0E9FCB5E72079202208F80020401CD6
:1022400020716079401C6071F0E720790722401E00
:10225000C1B2217108F801606079401EC0B260719E
:10226000081A90FBF2F302FB1300606120A0FEF756
:10227000E3F8617922A0FEF7DFF824A06169FEF798
:10228000DBF81648626921796430521E00F03FFB8A
:1022900020A0FEF7D1F8002506E000BF18F80510D1
:1022A00011A0FEF7C9F86D1C20798542F6DB1BA052
:1022B000FEF7C2F8094821796430FEF7B0F92671BB
:1022C00066712661A672E671B0E700000100002089
:1022D000240B002000080240040000204C090020CC
:1022E0004D6F7273653A0000256300000D0A00000F
:1022F0005374725F6C656E3A25640D0A000000002D
:1023000053706163653A25640D0A0000543A2564F0
:102310000D0A0000456E645374723A002E0D0A0DCA
:102320000A0000004FF0FF3A1E4FDFF87C901F4C70
:102330005146206B00F0A2FC387801281DD1002501
:10234000DFF86C804E4605E018F8051019A0FEF77E
:1023500073F86D1C30888542F6DB17A0FEF76CF829
:1023600000253D7032781549114800F007F94FF407
:1023700000610F48FEF753F9358011A0FEF75CF8B5
:1023800000250E4E04E0715D0AA0FEF755F86D1CA5
:10239000A0798542F7DB08A0FEF74EF80120E07136
:1023A0002072C5E700000020020000200400002089
:1023B0004C010020256300000D0A0000780A00206F
:1023C0004D6F7273653A0000DFF894800A26254C41
:1023D0004FF480674FF4AF790025207801283AD177
:1023E00039464046FEF73EFC012804D1E068401C17
:1023F000E0600120607239464046FEF733FC20B9A8
:10240000607A10B12069401C2061E168494502D81A
:102410002169494504D914A0FEF70EF8E56025614D
:10242000E0682269B0FBF6F1B2FBF6F2914212D1FC
:10243000B0FBF6F00A2804D0142804D01E280AD1D4
:1024400003E011A002E013A000E015A0FDF7F4FFE7
:10245000E560256165720A2000F0D5FBBDE700004C
:1024600000000240040000204572726F7220696E05
:102470002074686520526563656976655369676E87
:10248000616C210D0A0000004669676874210D0A1D
:102490000000000052657472656174210D0A00002D
:1024A000436F6D65210D0A002E4E2F4CB515207817
:1024B000C0B1012816D00228F9D1207A0028F6D020
:1024C0002AA0FDF7B9FF142000F09DFBA1792A484E
:1024D000FFF742FCA1792848FEF7A1F80020A0717F
:1024E0002072E4E7A0780028E1D1607880B101286B
:1024F0001BD00228DBD1012220213046FEF7B7FB9A
:10250000012229463046FEF7B2FB40F6B83718E004
:10251000012220213046FEF7AAFB0122294630463F
:10252000FEF7A5FB4FF47A770BE00122202130461D
:10253000FEF79DFB012229463046FEF798FB4FF43B
:10254000FA673846FEF728FA002220213046FEF7C7
:102550008EFB002229463046FEF789FB3846FEF7FF
:102560001BFAA4E700000240040000205472616ED0
:10257000736D6974210D0A00780A00202DE9F0417D
:1025800016460D46804600243B4F6CE018F80400C8
:10259000202862D061381A2864D2DFE800F00D10DC
:1025A0001316191C1F2225282B2E3134373A3D4093
:1025B0004346494C4F525558022230A149E004226B
:1025C0002FA146E0042230A143E0032230A140E0E5
:1025D000012230A13DE004222FA13AE0032230A1E4
:1025E00037E004222FA134E0022230A131E004229E
:1025F0002FA12EE0032230A12BE004222FA128E0FE
:10260000022230A125E002222FA122E003222FA1E5
:102610001FE004222EA11CE004222FA119E00322B6
:102620002FA116E003222FA113E001222EA110E01A
:1026300003222EA10DE004222DA10AE003222EA1E7
:1026400007E004222DA104E004222EA101E00422CF
:102650002EA12846FEF732F904E0B9797720294403
:1026600001F8010C641CB44290DBB9797320294451
:1026700001F8010CBDE8F081040000202E2D0000BF
:102680002D2E2E2E000000002D2E2D2E00000000DD
:102690002D2E2E002E0000002E2E2D2E00000000CC
:1026A0002D2D2E002E2E2E2E000000002E2E00008E
:1026B0002E2D2D2D000000002D2E2D002E2D2E2E26
:1026C000000000002D2D00002D2E00002D2D2D00CE
:1026D0002E2D2D2E000000002D2D2E2D000000008F
:1026E0002E2D2E002E2E2E002D0000002E2E2D0021
:1026F0002E2E2E2D000000002E2D2D002D2E2E2DE5
:10270000000000002D2E2D2D000000002D2D2E2E5E
:102710000000000010B54FF0E020006902F010F852
:10272000012803D0BDE8104001F088BB10BD0000B7
:1027300030B593B030216846FDF793FF14210CA803
:10274000FDF78FFF1C480025016841F080510160B2
:10275000006800F0805011901848016841F4404131
:1027600001600068022400F44040119001200090B4
:102770004FF4A02001906005CDE9064008AA04208E
:10278000642182E813000B906846FEF749FC08B10B
:1027900072B6FEE70CA90F2081E831004FF480509B
:1027A000CDE90F0503210CA8FEF730FB002801D06E
:1027B00072B6FEE713B030BD4038024000700040F2
:1027C0000248016841F470010160704788ED00E043
:1027D0000148FEF7E6BE0000DC0A00200148FEF7D3
:1027E000E0BE00006C0B0020F0B50268204B214CCD
:1027F0009F03214D214E984207D0B84205D0A042F8
:1028000003D0A84201D0B04204D122F0700C4A6833
:1028100042EA0C02984210D0B8420ED0A0420CD02E
:10282000A8420AD0B04208D0154CA04205D0154CA1
:10283000A04202D0144CA04203D122F44074CA68D2
:1028400022434C6922F08002224302608A68C262FD
:102850000A688262984201D10969016301214161DC
:102860000169C90703D0016921F001010161F0BDCF
:10287000000001400004004000080040000C00403F
:1028800000400140004401400048014010B5846808
:1028900042EA032224F47F440A432243826010BDAB
:1028A000826822F070020A4342F00701816070479B
:1028B00010B5036A046A24F001040462846924F0F8
:1028C000F00444EA021423F00A020A43846102621B
:1028D00010BD10B5036A046A24F010040462846910
:1028E00023F0A00324F4704444EA023243EA0111C5
:1028F0008261016210BD10B500F070FF002805D0A4
:10290000D0E90021BDE810400846104710BD70B561
:1029100000231A250DE0C45CA4F16106192E07D826
:10292000A41A473C94FBF5F605FB16446134C454E5
:102930005B1C8B42EFDB70BD10B5806B0021C18545
:10294000C184FEF7EFFE10BD01680C3151E8002F85
:1029500022F4907241E80023002BF5D10168143174
:1029600051E8002F22F0010241E80023002BF5D1AD
:10297000016B012909D101680C3151E8002F22F0C7
:10298000100241E80023002BF5D1202180F84210ED
:1029900000210163704708B590F84210222901D048
:1029A000022008BD82684FF480539A4201D1016928
:1029B00021B1816A9A421BD04AB10AE00268816A59
:1029C0005268C2F308020A80816A891C08E0026921
:1029D00072B10268526802F07F020A70816A491C73
:1029E0008162C18D491E0904090CC18503D01BE019
:1029F00002685268F1E70168CA6822F02002CA60E2
:102A00000168CA6822F48072CA6001684A6922F0CB
:102A100001024A61202180F8421000214163026BCB
:102A2000012A03D0FFF734F8002008BD01630168D4
:102A30000C3151E8002F22F0100241E80023002B56
:102A4000F5D101680A68D20602D50A684968009182
:102A5000818DFEF766FEE7E770B504460068016900
:102A6000E26821F44051114301612169A068E269E3
:102A700008436169114308432168CA6849F20C633D
:102A80009A430243CA6020684169A26921F44071F7
:102A90001143416131492068884202D0304988425F
:102AA00002D1FEF77DFA01E0FEF76AFAE26900233F
:102AB000192164253226B2F5004F626828D0A0FBA8
:102AC0000101930F9200FDF740FC0146B0FBF5F0C9
:102AD0006FF01802504301EB800006EB0010B0FBD2
:102AE000F5F000F0F002B1FBF5F002EB0012B1FBE3
:102AF000F5F06FF01803584301EB800006EB00106F
:102B0000B0FBF5F000F00F0021681044886070BD44
:102B1000A0FB010192185B41FDF717FC0146B0FBD9
:102B2000F5F00201B1FBF5F06FF01803584301EB2B
:102B3000800006EBC000B0FBF5F000F0F80002EBFF
:102B40004002B1FBF5F0584301EB800006EBC000FA
:102B5000B0FBF5F000F00700D6E7000000100140E0
:102B60000014014081628285C285002141642221D6
:102B700080F84210016921B10168CA6842F480728C
:102B8000CA6001684A6942F001024A610068C1688E
:102B900041F02001C1600020704700000148FEF7AD
:102BA000C3BD0000240B0020FEE70907090E002822
:102BB00004DB00F1E02080F80014704700F00F0003
:102BC00000F1E02080F8141D7047704704490A683E
:102BD0005206FCD5024AC1B2121D116070470000B6
:102BE00000440040FEF756F8FFF7A2FDFFF726F875
:102BF000FFF794F8FFF76CF800F012F8FEF7DAFF31
:102C000000F020F8FEE710B5EFF3058111B16FF089
:102C1000050403E0002408B100F068FF204610BD61
:102C2000EFF3058010B16FF00500704704480168AC
:102C300011B14FF0FF307047012101600020704753
:102C40009C00002010B5EFF3058010B16FF0050077
:102C500010BD08480168012902D04FF0FF3010BDB7
:102C6000054A002182F8141D0221016000F0EEFFE8
:102C7000002010BD9C0000200BE000E0F8B50D46E0
:102C80000024211F4E1C002804D000BFEFF3058252
:102C9000A2B10DB10C461BE000216A46009101F083
:102CA000B3FB012813D1009890B10A494FF080502E
:102CB0000860BFF34F8FBFF36F8F09E0294601F023
:102CC000F1FB012804D015B16FF0010400E0344697
:102CD0002046F8BD04ED00E0F8B5144603460E4664
:102CE0004FF00005EFF3058098BB93B39E423DD8AB
:102CF0004CB1A0680028E06803D0502836D30120EA
:102D000002E008B132E00020012B05D010B31846D4
:102D1000A26801F0C6F820E040B103200090002234
:102D200011460120A36801F0FDF804E00322002110
:102D3000012001F0D6F8050018D086B100231A460C
:102D4000194601F067F9012809D0284600F080FEF5
:102D500000250BE0184601F087F8050006D00CB1FD
:102D6000216800E00021284600F05EFE2846F8BDFC
:102D700038B50024E51E00280BD000BFEFF3058115
:102D8000A9B100210091694601F053FA012815D13B
:102D900002E06FF0030412E0009880B109494FF09F
:102DA00080500860BFF34F8FBFF36F8F07E00023A1
:102DB0001A46194601F02EF9012800D02C4620466B
:102DC00038BD000004ED00E02DE9FF414FEA0103AA
:102DD0004FF00005EFF30581039549BB40B3802711
:102DE000182100244AB3166806B1344696691EB10C
:102DF0003146761E382E02D21679F60703D000200F
:102E000004B0BDE8F081566906B1B708D2F808C031
:102E1000BCF1000F0DD0D5685C2D18D312693AB102
:102E200036B18DE806103A46214601F05EFC03906B
:102E30000DE0D6685EB912694AB903AACDE900125D
:102E4000BAB2214601F024FC012800D00395039872
:102E5000D6E700002DE9FC471C4690468946074608
:102E60004FF00006EFF3058058BB57B3082000F081
:102E70003BFC050025D0C5E90078B9F1000F12D060
:102E80000122114B002094B1216801B10846A168CC
:102E900059B1E4682C2C11D3CDE900312B46012126
:102EA00001F0F6FD08E00022EBE7E16831B900939C
:102EB0002B46012101F0D2FD060002D1284600F088
:102EC00045FD3046BDE8FC87F728000808B5EFF35C
:102ED000058212B16FF0050008BD58B100221346FB
:102EE00000920A46042101F01BFE012805D06FF074
:102EF000020008BD6FF0030008BD002008BD0000FF
:102F00002DE9F041134C0F460546E6682068001D88
:102F100000F08CFC681C07D137B12168BDE8F04196
:102F20000D48091D00F0D2BC20683544B54245600B
:102F3000216805D2A06BBDE8F041091D00F0AEBCD0
:102F4000606B091D00F0AAFCA06A854200D2A56250
:102F5000BDE8F0814C000020A41000202DE9F041D4
:102F6000054600F0BFFC2D4CA068401CA060206806
:102F70002B4F10B1606930B32BE02560A0680128A9
:102F800027D1002606EB860007EB800000F078FCD6
:102F9000761C382EF6D3234800F072FC21481430FA
:102FA00000F06EFC1F48283000F06AFC1D483C30E1
:102FB00000F066FC1B48503000F062FC194860636A
:102FC0001430A06305E02068E96AC06A884200D82E
:102FD0002560606A401C60626864E86A2169884212
:102FE00000D9206100EB800007EB8000291D00F074
:102FF0006DFC00F097FC606900280CD02068E96A3D
:10300000C06A884207D208494FF080500860BFF379
:103010004F8FBFF36F8FBDE8F08100004C000020A0
:10302000F40B00205410002004ED00E038B500F04F
:1030300059FC104C2068C0B90F4800F021FC0E4824
:10304000143000F01DFC0C48E060143020610020BA
:103050000A4B009003F150021021142000F062FF8F
:10306000206010B106A100F0DFFCBDE8384000F0A0
:1030700059BC00008800002048120020B810002031
:10308000546D72510000000030B4026C0B46002AEF
:103090000BD0C1681144C1608468A14201D30168AA
:1030A000C16030BC1846FDF76DBA30BC70472DE9E1
:1030B000F041856B174604460026026C82B1C7B109
:1030C000E068FDF75FFAE168206C091AE1602268A8
:1030D000914202D2A168081AE060022F16D017E0D0
:1030E0002068A8B9A06801F0A3FB06460020A060F4
:1030F0000EE06068FDF746FA216C60680844606085
:10310000A168884204D32068606001E005B16D1EAB
:103110006D1CA5633046BDE8F08110B5044690F8FB
:10312000590058B101280CD002280FD0502080F34C
:103130001188BFF34F8FBFF36F8FFEE7206B00F056
:1031400005FC2046BDE8104000F000BC10BD0000AA
:1031500010484FF47051420706D0C01D0D4920F0B1
:103160000700411AC1F570510B4A00230144C2E91E
:1031700000030839183A21F0070111604B600B6019
:103180000B1AC0E9001393604FF000405360506188
:1031900070470000281D0020B8000020144E154C78
:1031A000A6F29C474FF08058DFF84C9012E000BF29
:1031B00000F098FBF068C568281D00F037FBA06898
:1031C000401EA0606068401E606000F0ABFB2846B7
:1031D000FFF7A3FF60680028EAD138680128F9D911
:1031E000C9F80080BFF34F8FBFF36F8FF2E7000085
:1031F000901000204C00002004ED00E070B51D464A
:10320000049C51B1C4F80020C4E90F0101212046FB
:1032100000F0BCFE84F84C5070BD2460F4E7000060
:103220002DE9F05F8846DDE90B9415468346910051
:103230009A460A9EA522206BFDF7E9F96FF003017B
:10324000206B01EB8501084420F00707780707D0C1
:10325000502080F31188BFF34F8FBFF36F8FFEE7CD
:103260000025B8F1000F0FD05FF00000221818F809
:10327000001082F8341018F8001011B1401C10280A
:10328000F4D384F8435001E084F83450382E00D34E
:103290003726E662C4E91365201D00F0FCFA04F14C
:1032A000180000F0F8FA2461C6F138006462A061E9
:1032B000656584F8585052465946384600F0A0FAE1
:1032C0002060B9F1000F01D0C9F80040BDE8F09FBF
:1032D0002DE9F0471E46DDE9089417460D008046AB
:1032E00015D0002C11D0FFF7A1FE04F11801C4F88D
:1032F000008081E86002201D00F0CDFA002F04D08C
:1033000014F8280F40F004002070BDE8F08750202A
:1033100080F31188BFF34F8FBFF36F8FFEE700007C
:1033200030B5114900E011460A688242FBD34B6870
:103330005C18844203D140681844486008464368DA
:103340001C18944209D1084C183C2468A24209D0A8
:1033500052681A4442600A6812680260814200D0D2
:10336000086030BD0460F9E7B800002070B50024A3
:1033700041600B4D0061914206D8D11A8269914299
:1033800006D2011D286907E09A4203D2994201D36F
:10339000012403E0011DE86800F080FA204670BDBA
:1033A0008800002010B5044600F09CFAA06B28B1FC
:1033B0005FF0000400F0B6FA204610BD0124F9E7E2
:1033C00030B589B03C4D6EE00498002806DADDE99E
:1033D0000601059A90470498002864DB069C606902
:1033E00010B1201D00F022FA03A800F0D7F8024621
:1033F00004980A2857D2DFE800F00505052D334A66
:1034000005052D3394F8280040F0010084F82800C9
:103410000599A069059B01442046FFF7A7FF68B303
:10342000216A2046884794F8280040073BD50020B1
:1034300000900598A169002342181946204601F022
:103440006FFBD8B9502080F31188BFF34F8FBFF3C3
:103450006F8FFEE714F8280F20F00100207022E0A3
:1034600094F8280040F0010084F828000598A06135
:1034700028B1811813462046FFF778FF13E050204B
:1034800080F31188BFF34F8FBFF36F8FFEE794F87F
:103490002800810703D4204600F058FA03E020F00A
:1034A000010084F82800002204A9286800F010FF19
:1034B000002889D109B030BD880000202DE9FC41E9
:1034C0000F46054600F006FC01A800F067F8044628
:1034D000019818B101F060FABDE8FC81254EAFB14A
:1034E00030690068D0B30027291B3A46306800F0E5
:1034F000DBFA01F051FA0028EED11F494FF080505D
:103500000860BFF34F8FBFF36F8FE5E7A542EBD89D
:1035100001F042FAF0682746C068C468201D00F038
:1035200085F994F82800410719D5A0692B4641195F
:103530003A462046FFF71AFFA8B10020034601468D
:1035400000902A46204601F0EBFA60B9502080F343
:103550001188BFF34F8FBFF36F8FFEE707E020F0B6
:10356000010084F82800216A20468847B4E7012733
:10357000BAE700008800002004ED00E00648416B37
:10358000096829B1416BC968C96849688162704797
:103590004FF0FF31FAE700004C00002070B50546FF
:1035A00001F0DCF8064E0446B068844203D200F015
:1035B00009F8012000E0002028602046B46070BDBA
:1035C00088000020F8B5194D20E0C068C46806687E
:1035D000201D00F02BF9216A2046884794F8280026
:1035E000400713D5A0693044B04206D92461606019
:1035F000211DE86800F052F908E00020034601466A
:1036000000903246204601F08BFA38B1E868016834
:103610000029DAD12969C5E90310F8BD502080F3EB
:103620001188BFF34F8FBFF36F8FFEE78800002034
:1036300008484068401C4FF0500080F3118804D0C7
:10364000BFF34F8FBFF36F8FFEE7BFF34F8FBFF313
:103650006F8FFEE7C0000020074CE068016841B1B1
:10366000C0680021D0F80000FFF728FFFFF7A8FE90
:10367000F3E701210020F7E7880000202DE9F04161
:10368000044600F02FF994F9455004F1240609E0AE
:10369000606A48B1304601F047F908B100F054FAC9
:1036A0006D1E6DB2002DF3DC4FF0FF3684F84560DF
:1036B00000F038F900F016F994F9445004F11007BD
:1036C00009E0206948B1384601F02EF908B100F050
:1036D0003BFA6D1E6DB2002DF3DC84F84460BDE84A
:1036E000F04100F01FB900002DE9F0410546002728
:1036F00000F0F0FA324E306808B9FFF729FD706922
:1037000005424ED1C5B3083568070ED005F0070055
:10371000C0F108000544680707D0502080F31188E5
:10372000BFF34F8FBFF36F8FFEE72DB370688542F5
:1037300037D82348183001460C6801E020460C4673
:103740006168A94202D221680029F7D131688C4210
:1037500027D007682168016060680837411B10297D
:103760000FD96019420708D0502080F31188BFF3A9
:103770004F8FBFF36F8FFEE713E041606560FFF787
:10378000CFFD61687068401A7060B268904200D2E4
:10379000B060706901430020C4E90001F068401C7A
:1037A000F06001F0F9F8780707D0502080F3118815
:1037B000BFF34F8FBFF36F8FFEE73846BDE8F08150
:1037C000A00000200449086818B10868026D521C66
:1037D00002650868704700004C00002010B5040026
:1037E00006D000F07FF8E46900F09CF8204610BD98
:1037F000502080F31188BFF34F8FBFF36F8FFEE728
:1038000010B5031F4FF080741C601B1F21F00101D5
:103810001960191F044B0B6014390A60091F6FF0FF
:10382000020244380A6010BD31360008D0E9013286
:1038300001699A60D0E901235A604A68824201D145
:1038400082684A60002202610868401E08600868B9
:1038500070470000034B036003F15C0008608020A8
:103860001060704770120020044B036003F15C008D
:1038700008604FF40070106070470000CC14002006
:1038800000F108014FF0FF32C0E90112C16001618F
:1038900000210160704700210161704730B50B685D
:1038A0005A1C02D000F1080202E0026904E022463C
:1038B000546825689D42FAD953684B6099608A60C4
:1038C000516008610168491C016030BD42684A606E
:1038D00093688B6093685960916008610168491C26
:1038E00001607047502080F31188BFF34F8FBFF302
:1038F0006F8F0A494868401C486001280CD108486D
:10390000006810F0FF0F07D0502080F31188BFF33C
:103910004F8FBFF36F8FFEE770470000C00000209D
:1039200004ED00E00849486828B1401E486001D114
:1039300080F311887047502080F31188BFF34F8FB8
:10394000BFF36F8FFEE70000C000002070B50028B5
:103950002AD0164DA0F1080460686969084207D1B1
:10396000502080F31188BFF34F8FBFF36F8FFEE7B6
:1039700022683AB1502080F31188BFF34F8FBFF314
:103980006F8FFEE78843606000F0A4F960686968A3
:10399000084468602046FFF7C3FC2869401C286182
:1039A000BDE8704000F0F8BF70BD0000A00000202E
:1039B0004FF0E02000210161816105494FF47A72E6
:1039C0000968B1FBF2F1491E4161072101617047AD
:1039D0004800002010B5FCF793FC114910280ED3C5
:1039E00000F1E02090F8F0030A78904207D25020CE
:1039F00080F31188BFF34F8FBFF36F8FFEE7094845
:103A00000068896800F4E060884207D9502080F39C
:103A10001188BFF34F8FBFF36F8FFEE710BD00001B
:103A2000C00000200CED00E010B5084B002200BFE4
:103A300053F832401CB1521C082AF9D310BD43F888
:103A4000321003EBC201486010BD0000B40B00202F
:103A500010B504000AD000F013F894F846000028CE
:103A60000CD12046BDE81040FFF770BF502080F316
:103A70001188BFF34F8FBFF36F8FFEE710BD0000BB
:103A8000084A002102EBC1035B68834206D1002093
:103A900042F8310002EBC10148607047491C082917
:103AA000F0D37047B40B002070B515460E4604469F
:103AB000FFF718FF94F944100020491C01D184F845
:103AC000440094F94510491C01D184F84500FFF7E2
:103AD00029FFA06B28B92A46314604F1240000F0E2
:103AE00051F82046BDE87040FFF7C8BD10B5020090
:103AF00014D00F48006B38B1502080F31188BFF309
:103B00004F8FBFF36F8FFEE700F0E4F800211046FF
:103B1000FFF7F6F900F040FF002807D105494FF004
:103B200080500860BFF34F8FBFF36F8F10BD000050
:103B30004C00002004ED00E002490A6A0260C968F6
:103B4000416070474C00002001490120C861704766
:103B50004C00002010B50C4650B1094909681831D5
:103B6000FFF79CFE2046BDE810400121FFF7C8B9D1
:103B7000502080F31188BFF34F8FBFF36F8FFEE7A4
:103B80004C00002070B514460D4668B10A4909681A
:103B90001831FFF79BFE0CB14FF0FF352146284648
:103BA000BDE87040FFF7ACB9502080F31188BFF337
:103BB0004F8FBFF36F8FFEE74C00002070B50400FD
:103BC0003ED0226DA2B1E06C884200D30146E06A8B
:103BD000884235D0012A33D11A4D2A6894420FD138
:103BE000502080F31188BFF34F8FBFF36F8FFEE734
:103BF000502080F31188BFF34F8FBFF36F8FFEE724
:103C0000E162A269002A02DBC1F13801A1610E4E16
:103C100000EB8000616906EB8000814210D1201D1D
:103C2000FFF704FEE06A2969884200D9286100EBA9
:103C3000800006EB8000211DBDE87040FFF746BE06
:103C400070BD00004C000020F40B002030B587B0A0
:103C50000024039405AA04A903A80494FFF7FAFD1D
:103C6000DDE903010094CDE90110002315A11748F7
:103C7000059A00F03AFD164D0028E8621FD000F0CA
:103C80001FFF012809D0401C19D1502080F3118852
:103C9000BFF34F8FBFF36F8FFEE7502080F3118883
:103CA000BFF34F8FBFF36F8F4FF0FF30A86201203B
:103CB0006861EC6007B0BDE8304000F045B807B07F
:103CC00030BD000049444C45000000009D31000813
:103CD0004C0000200248016B491C01637047000042
:103CE0004C000020164810B5016B11B10121C161D3
:103CF00010BD0021C1610169124A01E0B9B1491E3C
:103D000001EB810352F82330002BF7D001EB810344
:103D100002EB830202F1080453685B685360A3421C
:103D200001D15B685360DA680260016110BD502008
:103D300080F31188BFF34F8FBFF36F8FFEE7000052
:103D40004C000020F40B00201CB537480168374AAE
:103D5000914207D1502080F31188BFF34F8FBFF3FA
:103D60006F8FFEE700683149491E884207D1502015
:103D700080F31188BFF34F8FBFF36F8FFEE72C499D
:103D800008780190FF20087008788DF800009DF8F1
:103D900000009DF8002000F0F000904207D0502075
:103DA00080F31188BFF34F8FBFF36F8FFEE79DF84D
:103DB0000000204C00F0500020700720A06005E0BB
:103DC0009DF8002052008DF80020401E9DF8002034
:103DD0001206F5D4A060032807D0502080F3118884
:103DE000BFF34F8FBFF36F8FFEE74FF44070A060BB
:103DF000019808700C482030016841F4700101609E
:103E0000016841F070410160FFF7D2FD0020606061
:103E1000FCF73EFA0848016841F040410160FCF7B8
:103E200023FA00201CBD000000ED00E071C20F412C
:103E300000E400E0C000002034EF00E010B55020A6
:103E400080F31188BFF34F8FBFF36F8F00F08CFCAE
:103E500018B104494FF080500860002080F31188A9
:103E600010BD000004ED00E010B50C4648B18442DE
:103E70000FD9502080F31188BFF34F8FBFF36F8F9E
:103E8000FEE7502080F31188BFF34F8FBFF36F8F91
:103E9000FEE70222002100F024F8002800D084630D
:103EA00010BD38B50C4648B184420FD9502080F37C
:103EB0001188BFF34F8FBFF36F8FFEE7502080F361
:103EC0001188BFF34F8FBFF36F8FFEE702211346B8
:103ED00000220091114600F025F8002800D08463EC
:103EE00038BDF8B517460E46050013D005FB06F0A1
:103EF0005030FFF7F9FB04000AD0002084F8460098
:103F000004F150023B46314628460094FFF776F90B
:103F10002046F8BD502080F31188BFF34F8FBFF3C8
:103F20006F8FFEE738B5049D18B153B1CAB181B1A6
:103F300020E0502080F31188BFF34F8FBFF36F8FC5
:103F4000FEE7502080F31188BFF34F8FBFF36F8FD0
:103F5000FEE7502080F31188BFF34F8FBFF36F8FC0
:103F6000FEE739B1502080F31188BFF34F8FBFF3C4
:103F70006F8FFEE750241C46012384F846302B4601
:103F80000094FFF73BF9204638BD000070B50D46A0
:103F9000040025D0FFF7A6FCD4E90F20216802FB1E
:103FA0000011A1600021A163216861600A46D4E983
:103FB0000F01401E00FB0121E16021464FF0FF3060
:103FC00001F8440F487004F110008DB1FFF758FC60
:103FD00004F12400FFF754FCFFF7A4FC012070BD9E
:103FE000502080F31188BFF34F8FBFF36F8FFEE730
:103FF00021690029F0D000F097FC0028ECD004499A
:104000004FF080500860BFF34F8FBFF36F8FE3E72F
:1040100004ED00E02DE9FF4782B01D468A464FF0CF
:104020000008040003D0BAF1000F08D011E05020BE
:1040300080F31188BFF34F8FBFF36F8FFEE7206CC3
:1040400038B1502080F31188BFF34F8FBFF36F8FCB
:10405000FEE7022D0AD1E06B012807D0502080F343
:104060001188BFF34F8FBFF36F8FFEE700F068FB3F
:104070003F4F4FF000094FF0805648B9049838B1CF
:10408000502080F31188BFF34F8FBFF36F8FFEE78F
:10409000FFF728FCA06BE16B884207D3022D05D007
:1040A0000498D0B1B8F1000F1AD01EE02A4651464C
:1040B0002046FEF7FCFF616A19B104F1240000F00C
:1040C00033FC20B13E60BFF34F8FBFF36F8FFFF71C
:1040D00029FC012006B0BDE8F087FFF723FC22E0B1
:1040E0006846FFF729FD4FF00108FFF71BFCFFF7BB
:1040F000F1FDFFF7F7FB94F94400401C01D184F86F
:10410000449094F94500401C01D184F84590FFF794
:1041100009FC04A9684600F081FA30B12046FFF797
:10412000ADFA00F039FC0020D4E7FFF7DBFBA06B11
:10413000E16B884213D1FFF7F5FB04F110000499FD
:10414000FFF708FD2046FFF799FA00F025FC00284C
:104150009ED13E60BFF34F8FBFF36F8F98E7FFF79D
:10416000E1FB2046FFF78AFA00F016FC90E700001A
:1041700004ED00E02DE9F0471F4690468946040013
:1041800003D0B9F1000F08D011E0502080F311885E
:10419000BFF34F8FBFF36F8FFEE7206C38B1502015
:1041A00080F31188BFF34F8FBFF36F8FFEE7022FAD
:1041B0000AD1E06B012807D0502080F31188BFF3AB
:1041C0004F8FBFF36F8FFEE7FFF704FC5020EFF334
:1041D000118680F31188BFF34F8FBFF36F8FA06BF1
:1041E000E16B884206D3022F04D0002086F31188A9
:1041F000BDE8F08794F94550A06B3A464946204601
:10420000FEF755FF681C04D06D1C84F84550012052
:10421000ECE7606A0028FAD004F1240000F084FB87
:104220000028F4D0B8F1000FF1D00121C8F8001037
:10423000EDE770B50E46040009D0206C78B150202F
:1042400080F31188BFF34F8FBFF36F8FFEE75020CD
:1042500080F31188BFF34F8FBFF36F8FFEE72068A5
:1042600048B9A06838B1502080F31188BFF34F8F50
:10427000BFF36F8FFEE7FFF7ADFB5020EFF3118523
:1042800080F31188BFF34F8FBFF36F8FA16BE06B8B
:10429000884218D994F94500491CA163411C04D0F7
:1042A000401C84F8450001200EE0606A0028FAD026
:1042B00004F1240000F038FB0028F4D0002EF2D0E6
:1042C00001203060EFE7002085F3118870BD000009
:1042D0002DE9F747002683B08A46040003D0BAF1DF
:1042E000000F08D011E0502080F31188BFF34F8FEA
:1042F000BFF36F8FFEE7206C38B1502080F3118838
:10430000BFF34F8FBFF36F8FFEE700F019FADFF8AE
:10431000F4804FF000094FF0805748B9059838B144
:10432000502080F31188BFF34F8FBFF36F8FFEE7EC
:10433000FFF7D8FAA56BC5B151462046FEF7A4FE9B
:104340006D1EA563206950B104F1100000F0ECFA75
:1043500028B1C8F80070BFF34F8FBFF36F8FFFF71E
:10436000E1FA012006B0BDE8F087059808B11EB15A
:1043700006E0FFF7D7FA27E06846FFF7DDFB0126E6
:10438000FFF7D0FAFFF7A6FCFFF7ACFA94F9440068
:10439000401C01D184F8449094F94500401C01D19F
:1043A00084F84590FFF7BEFA05A9684600F036F993
:1043B000002820460AD0FFF761F900F0EDFA204608
:1043C000FEF7F0FF0028B3D00020CBE7FEF7EAFFAE
:1043D00090B104F124000599FFF7BCFB2046FFF7DC
:1043E0004DF900F0D9FA0028A2D1C8F80070BFF347
:1043F0004F8FBFF36F8F9BE72046FFF73FF900F029
:10440000CBFA95E704ED00E02DE9F04790468946A8
:10441000040003D0B9F1000F08D011E0502080F360
:104420001188BFF34F8FBFF36F8FFEE7206C38B159
:10443000502080F31188BFF34F8FBFF36F8FFEE7DB
:10444000FFF7C8FA5020EFF3118680F31188BFF30D
:104450004F8FBFF36F8FA76BF7B194F94450494664
:104460002046FEF711FE7F1EA763681C04D06D1C5A
:1044700084F84450012010E020690028FAD004F1AB
:10448000100000F051FA0028F4D0B8F1000FF1D07C
:104490000121C8F80010EDE7002086F31188BDE87F
:1044A000F08700002DE9F343002683B00400354671
:1044B00009D0206C78B1502080F31188BFF34F8F62
:1044C000BFF36F8FFEE7502080F31188BFF34F8F4B
:1044D000BFF36F8FFEE700F033F9DFF83C814FF058
:1044E00000094FF0805748B9049838B1502080F344
:1044F0001188BFF34F8FBFF36F8FFEE7FFF7F2F91D
:10450000A06BC8B1401EA063206810B9FFF75AF92C
:10451000A060206950B104F1100000F005FA28B144
:10452000C8F80070BFF34F8FBFF36F8FFFF7FAF932
:10453000012005B0BDE8F083049808B166B10FE032
:104540003DB1502080F31188BFF34F8FBFF36F8FC1
:10455000FEE7FFF7E7F95DE06846FFF7EDFA0126B1
:10456000FFF7E0F9FFF7B6FBFFF7BCF994F9440059
:10457000401C01D184F8449094F94500401C01D1BD
:1045800084F84590FFF7CEF904A9684600F046F894
:104590000028204612D0FFF771F800F0FDF9204600
:1045A000FEF700FF0028A9D09DB3FFF79BF9606AD2
:1045B00050B3206B0068C0F1380126E0FEF7F2FE30
:1045C000E0B1206838B9FFF78DF9A06800F070F904
:1045D0000546FFF7A7F904F124000499FFF7BAFA9A
:1045E0002046FFF74BF800F0D7F9002886D1C8F82D
:1045F0000070BFF34F8FBFF36F8F7FE72046FFF749
:104600003DF800F0C9F979E70021A068FFF7D6FA74
:104610009FE7FFE700208CE704ED00E02DE9F04183
:104620000C46050011D0C4B1FFF75CF9174BDA68EE
:104630006E682068911B471C17D02F681B6A9F4229
:1046400019D0964217D8012410E0502080F3118829
:10465000BFF34F8FBFF36F8FFEE7502080F31188B9
:10466000BFF34F8FBFF36F8FFEE70024FFF75AF9B8
:104670002046BDE8F081884205D9401A20602846CE
:10468000FFF75AFAF1E700202060DCE74C00002039
:104690002DE9FF5F8346DDE90E87994616468A4677
:1046A0009000FFF721F805001CD05C20FFF71CF8F4
:1046B000040014D00020256384F85900CDE902409D
:1046C000CDE900874B46324651465846FEF7A8FDD5
:1046D0002046FEF743FC012004B0BDE8F09F2846C9
:1046E000FFF734F94FF0FF30F6E7F0B585B0DDE9BC
:1046F0000B640A9DA6B1DCB15C27009726630226F5
:1047000084F85960002604AFCDE90246CDE9005790
:10471000FEF786FD2046FEF721FC049805B0F0BDAB
:10472000502080F31188BFF34F8FBFF36F8FFEE7E8
:10473000502080F31188BFF34F8FBFF36F8FFEE7D8
:104740000548416919B1006B18B10020704701207C
:1047500070470220704700004C0000200148C068EC
:10476000704700004C0000202DE9F0412E4C00273E
:10477000206B28B1A069401CA0613846BDE8F081DB
:10478000E668761CE66013D1606B006838B1502093
:1047900080F31188BFF34F8FBFF36F8FFEE7606B1D
:1047A000A16B6163A063206A401C2062FEF7E6FEF5
:1047B000A06ADFF87880864209D3606B0068A0B1F8
:1047C000606BC068C5686868864211D2A0622068C4
:1047D000C06A00EB800158F82100012800D90127A8
:1047E000E0690028C9D00127C7E74FF0FF30EDE7A7
:1047F000281DFFF71BF8A86A18B105F11800FFF78C
:1048000015F8E86A2169884200D9206100EB80012F
:1048100008EB8100291DFFF759F8E86A2168C96A89
:104820008842CAD30127C8E74C000020F40B0020BF
:1048300070B504004FF0000133D01B4D286884424E
:1048400007D0502080F31188BFF34F8FBFF36F8FD5
:10485000FEE7206D38B1401E2065E36CE26A9A42A3
:104860001FD040B11DE0502080F31188BFF34F8F5F
:10487000BFF36F8FFEE7201DFEF7D8FFE06CE0620C
:10488000C0F13800A061E06A2969884200D9286136
:10489000064900EB800001EB8000211DFFF716F8B0
:1048A0000121084670BD00004C000020F40B0020E0
:1048B00070B504004FF000002BD0194DE16A2A6852
:1048C000D26A914226D2A069002804DB2868C06A17
:1048D000C0F13800A061134E01EB8101606906EB65
:1048E0008101884211D1201DFEF7A0FF2868C06A0F
:1048F000E0622969884200D9286100EB800006EB5C
:104900008000211DFEF7E2FF02E02868C06AE06235
:10491000012070BDE16C2A68D26A9142F8D370BD63
:104920004C000020F40B002070B5C068C46854B17E
:1049300004F118000646FEF779FF144D286B50B1BC
:104940003146134815E0502080F31188BFF34F8F94
:10495000BFF36F8FFEE7201DFEF768FFE06A29694D
:10496000884200D928610B4900EB800001EB8000F0
:10497000211DFEF7ABFFE06A2968C96A884202D9A7
:104980000120E86170BD002070BD00004C000020D7
:104990007C100020F40B00202DE9F0472C4D002462
:1049A0002746286B38B1FEF79DFF286B401E286311
:1049B000286B40B146E0502080F31188BFF34F8F41
:1049C000BFF36F8FFEE7A968224E0120D1B3A6F591
:1049D000916980463068E0B1F068C46804F118005D
:1049E000FEF724FF201DFEF721FFE06A29698842B7
:1049F00000D9286100EB800109EB8100211DFEF741
:104A000065FFE06A2968C96A8842E3D3C5F81C805B
:104A1000E0E70CB1FEF7B2FDAC694CB14FEA080615
:104A2000FFF7A2FE00B1EE61641EF9D10020A8617B
:104A3000E86938B10849012738070860BFF34F8F8C
:104A4000BFF36F8FFEF76EFF3846BDE8F0870000BA
:104A50004C0000207C10002004ED00E02DE9FC4714
:104A600081461E46174688462C200A9DFEF73CFECE
:104A700004000AD0002084F82800CDE90054334611
:104A80003A4641464846FEF723FC2046BDE8FC87EF
:104A90007CB52C26DDE90654009644B1022684F844
:104AA0002860CDE90054FEF713FC20467CBD502061
:104AB00080F31188BFF34F8FBFF36F8FFEE70000C5
:104AC00010B586B0FEF7B2FA114C2068B8B10020DC
:104AD0000390049005AA04A903A8FEF7C5FEDDE92A
:104AE000032103208DE8070000230AA10B48059A43
:104AF000FFF7FBFD606010B106B0012010BD502033
:104B000080F31188BFF34F8FBFF36F8FFEE7000074
:104B100088000020546D72205376630059360008D7
:104B20002DE9FF411E46134602000A9D4FF000008A
:104B300016D0144C2768002F0FD0CDE90013029235
:104B4000062917DAFFF7FCFD02284FF000030FD00B
:104B5000002269462068FFF75DFA04B0BDE8F081E5
:104B6000502080F31188BFF34F8FBFF36F8FFEE7A4
:104B70002A46EEE70023324669463846FFF7FAFA3E
:104B8000EBE70000880000204FF04070E1EE100AD3
:104B900070470000A84C0008000000000000000062
:104BA00000000000000000000002000018000000EB
:104BB0000000000000000000804C00080000000021
:104BC00000000000000000000000000000020000E3
:104BD000200000000000000000000000904C0008D1
:104BE00000000000000000000000000000000000C5
:104BF000000200001800000000000000000000009B
:104C0000B44C00080000000000000000000000009C
:104C10000000000000040000180000000000000078
:104C2000000000009C4C0008000000000000000094
:104C3000000000000000000000020000180000005A
:104C40000000000000000000C44C0008000000004C
:104C50000000000000000000D04C00080000000030
:104C60000000000000000000000000000000000044
:104C70000102030406070809000000000102030402
:104C800052656365697665446174615461736B0054
:104C9000526563656976655461736B004B65795342
:104CA00063616E5461736B0050726F63657373540C
:104CB00061736B005472616E736D69745461736BD0
:104CC0000000000044657465637454696D6572008A
:104CD0005573617274000000F84C00080000002059
:104CE000CC000000D4010008C44D0008CC00002016
:104CF000BC5E0000F00100080000000000000000A1
:104D000000000000000000000000000000000000A3
:104D10000000000000000000000000000000000093
:104D20000000000000000000000000000000000083
:104D30000000000001000000100000000000000062
:104D40000024F4000000000000000000000000004B
:104D50000000000000000000000000000000000053
:104D60000000000000000000000000000000000043
:104D70000000000000000000000000000000000033
:104D80000000000000000000000000000000000023
:104D90000000000000000000000000000000000013
:104DA0000000000000000000000000000000000003
:104DB000000000000000000000000000AAAAAAAA4B
:044DC00000000000EF
:040000050800019955
:00000001FF
